{
  "_format": "hh-sol-artifact-1",
  "contractName": "FundRaisingPlatform",
  "sourceName": "contracts/FundRaisingPlatform.sol",
  "abi": [
    {
      "inputs": [
        {
          "internalType": "address",
          "name": "_treasury",
          "type": "address"
        }
      ],
      "stateMutability": "nonpayable",
      "type": "constructor"
    },
    {
      "anonymous": false,
      "inputs": [
        {
          "indexed": true,
          "internalType": "address",
          "name": "campaignAddress",
          "type": "address"
        },
        {
          "indexed": true,
          "internalType": "address",
          "name": "startup",
          "type": "address"
        },
        {
          "indexed": false,
          "internalType": "bool",
          "name": "certified",
          "type": "bool"
        },
        {
          "indexed": true,
          "internalType": "address",
          "name": "lawyer",
          "type": "address"
        }
      ],
      "name": "CampaignCreated",
      "type": "event"
    },
    {
      "anonymous": false,
      "inputs": [
        {
          "indexed": true,
          "internalType": "address",
          "name": "investor",
          "type": "address"
        }
      ],
      "name": "InvestorRegistered",
      "type": "event"
    },
    {
      "anonymous": false,
      "inputs": [
        {
          "indexed": true,
          "internalType": "address",
          "name": "previousOwner",
          "type": "address"
        },
        {
          "indexed": true,
          "internalType": "address",
          "name": "newOwner",
          "type": "address"
        }
      ],
      "name": "OwnershipTransferred",
      "type": "event"
    },
    {
      "anonymous": false,
      "inputs": [
        {
          "indexed": true,
          "internalType": "address",
          "name": "owner",
          "type": "address"
        },
        {
          "indexed": false,
          "internalType": "uint256",
          "name": "amount",
          "type": "uint256"
        }
      ],
      "name": "ResidualETHWithdrawn",
      "type": "event"
    },
    {
      "stateMutability": "payable",
      "type": "fallback"
    },
    {
      "inputs": [],
      "name": "COMMISSION_PERCENT",
      "outputs": [
        {
          "internalType": "uint256",
          "name": "",
          "type": "uint256"
        }
      ],
      "stateMutability": "view",
      "type": "function"
    },
    {
      "inputs": [],
      "name": "campaignCreationFee",
      "outputs": [
        {
          "internalType": "uint256",
          "name": "",
          "type": "uint256"
        }
      ],
      "stateMutability": "view",
      "type": "function"
    },
    {
      "inputs": [
        {
          "internalType": "address",
          "name": "",
          "type": "address"
        },
        {
          "internalType": "uint256",
          "name": "",
          "type": "uint256"
        }
      ],
      "name": "campaignsByStartup",
      "outputs": [
        {
          "internalType": "address",
          "name": "",
          "type": "address"
        }
      ],
      "stateMutability": "view",
      "type": "function"
    },
    {
      "inputs": [
        {
          "internalType": "string",
          "name": "_name",
          "type": "string"
        },
        {
          "internalType": "uint256",
          "name": "_targetAmount",
          "type": "uint256"
        },
        {
          "internalType": "uint256",
          "name": "_sharePrice",
          "type": "uint256"
        },
        {
          "internalType": "uint256",
          "name": "_endTime",
          "type": "uint256"
        },
        {
          "internalType": "bool",
          "name": "_certified",
          "type": "bool"
        },
        {
          "internalType": "address",
          "name": "_lawyer",
          "type": "address"
        },
        {
          "internalType": "uint96",
          "name": "_royaltyFee",
          "type": "uint96"
        }
      ],
      "name": "createCampaign",
      "outputs": [],
      "stateMutability": "payable",
      "type": "function"
    },
    {
      "inputs": [
        {
          "internalType": "uint256",
          "name": "",
          "type": "uint256"
        }
      ],
      "name": "deployedCampaigns",
      "outputs": [
        {
          "internalType": "address",
          "name": "",
          "type": "address"
        }
      ],
      "stateMutability": "view",
      "type": "function"
    },
    {
      "inputs": [],
      "name": "emergencyWithdraw",
      "outputs": [],
      "stateMutability": "nonpayable",
      "type": "function"
    },
    {
      "inputs": [],
      "name": "getAllCampaigns",
      "outputs": [
        {
          "internalType": "address[]",
          "name": "",
          "type": "address[]"
        }
      ],
      "stateMutability": "view",
      "type": "function"
    },
    {
      "inputs": [
        {
          "internalType": "address",
          "name": "_startup",
          "type": "address"
        }
      ],
      "name": "getCampaignsByStartup",
      "outputs": [
        {
          "internalType": "address[]",
          "name": "",
          "type": "address[]"
        }
      ],
      "stateMutability": "view",
      "type": "function"
    },
    {
      "inputs": [],
      "name": "owner",
      "outputs": [
        {
          "internalType": "address",
          "name": "",
          "type": "address"
        }
      ],
      "stateMutability": "view",
      "type": "function"
    },
    {
      "inputs": [],
      "name": "registerUser",
      "outputs": [],
      "stateMutability": "payable",
      "type": "function"
    },
    {
      "inputs": [
        {
          "internalType": "address",
          "name": "",
          "type": "address"
        }
      ],
      "name": "registeredUsers",
      "outputs": [
        {
          "internalType": "bool",
          "name": "",
          "type": "bool"
        }
      ],
      "stateMutability": "view",
      "type": "function"
    },
    {
      "inputs": [],
      "name": "registrationFee",
      "outputs": [
        {
          "internalType": "uint256",
          "name": "",
          "type": "uint256"
        }
      ],
      "stateMutability": "view",
      "type": "function"
    },
    {
      "inputs": [],
      "name": "renounceOwnership",
      "outputs": [],
      "stateMutability": "nonpayable",
      "type": "function"
    },
    {
      "inputs": [
        {
          "internalType": "address",
          "name": "newOwner",
          "type": "address"
        }
      ],
      "name": "transferOwnership",
      "outputs": [],
      "stateMutability": "nonpayable",
      "type": "function"
    },
    {
      "inputs": [],
      "name": "treasury",
      "outputs": [
        {
          "internalType": "address",
          "name": "",
          "type": "address"
        }
      ],
      "stateMutability": "view",
      "type": "function"
    },
    {
      "inputs": [],
      "name": "withdrawResidualETH",
      "outputs": [],
      "stateMutability": "nonpayable",
      "type": "function"
    },
    {
      "stateMutability": "payable",
      "type": "receive"
    }
  ],
  "bytecode": "0x60803461010957601f613be438819003918201601f19168301916001600160401b0383118484101761010e5780849260209460405283398101031261010957516001600160a01b0380821691829003610109576000549060018060a01b0319913383821617600055604051913391167f8be0079c531659141344cd1fd0a4f28419497f9722a3daafe3b4186f6b6457e0600080a366b1a2bc2ec5000060025566470de4df82000060035582156100c757506001541617600155604051613abf90816101258239f35b62461bcd60e51b815260206004820152601860248201527f496e76616c6964207472656173757279206164647265737300000000000000006044820152606490fd5b600080fd5b634e487b7160e01b600052604160045260246000fdfe60808060405260043610156200001d575b503662000e775762000e77565b60003560e01c9081630e50cee51462000bb357508063110ebc34146200066757806314c44e091462000647578063339d50a514620005e95780634d3820eb14620004e257806361d027b314620004b7578063662d7f7a1462000457578063715018a614620003fa57806386cdf604146200036f5780638da5cb5b1462000344578063abd3b8b814620002af578063b404e0011462000291578063d1483cf6146200021e578063db2e21bc14620001db578063f2fde38b14620001105763f30c49dc14620000eb573862000010565b346200010b5760003660031901126200010b576020600354604051908152f35b600080fd5b346200010b5760203660031901126200010b576200012d62000bf2565b6200013762000cd4565b6001600160a01b039081169081156200018757600054826001600160601b0360a01b821617600055167f8be0079c531659141344cd1fd0a4f28419497f9722a3daafe3b4186f6b6457e0600080a3005b60405162461bcd60e51b815260206004820152602660248201527f4f776e61626c653a206e6577206f776e657220697320746865207a65726f206160448201526564647265737360d01b6064820152608490fd5b346200010b5760003660031901126200010b57620001f862000cd4565b6200021c476200020a81151562000e35565b6000546001600160a01b031662000d2d565b005b346200010b5760003660031901126200010b576200023b62000cd4565b476200024981151562000e35565b7fb34dac347e0d693dcca2ee786443a7f8dcaf21f54f930e5ec37d9819368ca9ac602060018060a01b036200028384826000541662000d2d565b6000541692604051908152a2005b346200010b5760003660031901126200010b576020604051600f8152f35b346200010b576020806003193601126200010b576001600160a01b0380620002d662000bf2565b1660005260068252604060002091604051809282855492838152019460005282600020926000915b8383106200032a57620003268662000319818a038262000c09565b6040519182918262000c8e565b0390f35b8454811687529581019560019485019490920191620002fe565b346200010b5760003660031901126200010b576000546040516001600160a01b039091168152602090f35b346200010b5760003660031901126200010b57604051806005549182815260208091019260056000527f036b6384b5eca791c62761152d0c79bb0604c104a5fb6f4eb0703f3154bb3db0916000905b828210620003d9576200032685620003198189038262000c09565b83546001600160a01b031686529485019460019384019390910190620003be565b346200010b5760003660031901126200010b576200041762000cd4565b600080546001600160a01b0319811682556001600160a01b03167f8be0079c531659141344cd1fd0a4f28419497f9722a3daafe3b4186f6b6457e08280a3005b346200010b5760403660031901126200010b576200047462000bf2565b6024359060018060a01b038091166000526006602052604060002080548310156200010b57602092620004a79162000c5f565b9190546040519260031b1c168152f35b346200010b5760003660031901126200010b576001546040516001600160a01b039091168152602090f35b60003660031901126200010b5733600052600460205260ff60406000205416620005af5760025434036200056a57600154620005299034906001600160a01b031662000d2d565b3360005260046020526040600020600160ff19825416179055337f01e428601546e19350993364c26c5a618b33ef987abc24525c998748ae964294600080a2005b60405162461bcd60e51b815260206004820152601a60248201527f496e636f727265637420726567697374726174696f6e206665650000000000006044820152606490fd5b60405162461bcd60e51b8152602060048201526012602482015271105b1c9958591e481c9959da5cdd195c995960721b6044820152606490fd5b346200010b5760203660031901126200010b576004356005548110156200010b5760056000527f036b6384b5eca791c62761152d0c79bb0604c104a5fb6f4eb0703f3154bb3db001546040516001600160a01b039091168152602090f35b346200010b5760003660031901126200010b576020600254604051908152f35b60e03660031901126200010b5767ffffffffffffffff6004358181116200010b57366023820112156200010b57806004013591620006a58362000c42565b92620006b5604051948562000c09565b808452602492368483830101116200010b5781600092856020930183880137850101526084351515608435036200010b5760a4356001600160a01b03811690036200010b5760c4356001600160601b03811681036200010b5733600052600460205260ff604060002054161562000b6f5783511562000b2b5782351562000aef576044351562000ab55742606435111562000a7157600354340362000a2d57608435620009c0575b600154620007769034906001600160a01b031662000d2d565b600154600054604051936001600160a01b03928316939290911690612bce8501808611911017620009ab57612bce62000ebc853933612bce850190815261016060208201819052875191018190529160005b8381106200098f57506000610180612bce870185810182018390528835604082015260443560608201526064356080820152608435151560a08201526001600160a01b0360a4351660c082015260e0810196909652600f6101008701526001600160601b0392909216610120860152610140850192909252601f909201601f1916909201839003019190f08015620009835760018060a01b0316600554680100000000000000009081811015620009595760018101806005558110156200096e577f036b6384b5eca791c62761152d0c79bb0604c104a5fb6f4eb0703f3154bb3db001826001600160601b0360a01b8254161790553360005260066020526040600020805491821015620009595790620008e89160018201815562000c5f565b81546001600160a01b0360039290921b91821b19169083901b17905560843515620009515760a4355b604051608435151581526001600160a01b039091169133917f2e16127556fbd8d47e661c2e016db0d9b7deca71d7b690ad1ef6671888a2266990602090a4005b600062000911565b83634e487b7160e01b60005260416004526000fd5b83634e487b7160e01b60005260326004526000fd5b6040513d6000823e3d90fd5b80602080928a01015161018082612bce8a0101015201620007c8565b84634e487b7160e01b60005260416004526000fd5b60a4356001600160a01b03166200075d5760405162461bcd60e51b815260206004820152602f818501527f4c6177796572206164647265737320726571756972656420666f72206365727460448201526e69666965642063616d706169676e7360881b6064820152608490fd5b60405162461bcd60e51b815260206004820152601f818501527f496e636f72726563742063616d706169676e206372656174696f6e20666565006044820152606490fd5b60405162461bcd60e51b815260206004820152601e818501527f456e642074696d65206d75737420626520696e207468652066757475726500006044820152606490fd5b60405162461bcd60e51b81526020600482015260138185015272496e76616c696420736861726520707269636560681b6044820152606490fd5b60405162461bcd60e51b81526020600482015260158185015274125b9d985b1a59081d185c99d95d08185b5bdd5b9d605a1b6044820152606490fd5b60405162461bcd60e51b8152602060048201526019818501527f43616d706169676e206e616d65206973207265717569726564000000000000006044820152606490fd5b60405162461bcd60e51b8152602060048201526017818501527f596f75206d75737420626520726567697374657265642e0000000000000000006044820152606490fd5b346200010b5760203660031901126200010b576020906001600160a01b0362000bdb62000bf2565b166000526004825260ff6040600020541615158152f35b600435906001600160a01b03821682036200010b57565b90601f8019910116810190811067ffffffffffffffff82111762000c2c57604052565b634e487b7160e01b600052604160045260246000fd5b67ffffffffffffffff811162000c2c57601f01601f191660200190565b805482101562000c785760005260206000200190600090565b634e487b7160e01b600052603260045260246000fd5b6020908160408183019282815285518094520193019160005b82811062000cb6575050505090565b83516001600160a01b03168552938101939281019260010162000ca7565b6000546001600160a01b0316330362000ce957565b606460405162461bcd60e51b815260206004820152602060248201527f4f776e61626c653a2063616c6c6572206973206e6f7420746865206f776e65726044820152fd5b81471062000df0576000918291829182916001600160a01b03165af13d1562000dea573d62000d5c8162000c42565b9062000d6c604051928362000c09565b8152600060203d92013e5b1562000d7f57565b60405162461bcd60e51b815260206004820152603a60248201527f416464726573733a20756e61626c6520746f2073656e642076616c75652c207260448201527f6563697069656e74206d617920686176652072657665727465640000000000006064820152608490fd5b62000d77565b60405162461bcd60e51b815260206004820152601d60248201527f416464726573733a20696e73756666696369656e742062616c616e63650000006044820152606490fd5b1562000e3d57565b60405162461bcd60e51b81526020600482015260126024820152714e6f2045544820746f20776974686472617760701b6044820152606490fd5b606460405162461bcd60e51b815260206004820152602060248201527f44697265637420455448207472616e7366657273206e6f7420616c6c6f7765646044820152fdfe608060405234620009fe5762002bce803803806200001d8162000a39565b92833981019061016081830312620009fe576200003a8162000a5f565b60208201519091906001600160401b038111620009fe57810183601f82011215620009fe578051906001600160401b038211620004165762000086601f8301601f191660200162000a39565b9482865260208383010111620009fe5760005b82811062000a03575050602060009185010152604081015160608201519060808301519460a0840151908115158203620009fe57620000db60c0860162000a5f565b91620000ea60e0870162000a5f565b90610100870151936101208801519760018060601b0389168903620009fe5761014062000118910162000a5f565b996200012362000a19565b600e81526d43616d706169676e53686172657360901b60208201526200014862000a19565b6003815262086a6960eb1b6020820152815190916001600160401b038211620004165760025490600182811c92168015620009f3575b6020831014620005c45781601f84931162000992575b50602090601f8311600114620009145760009262000908575b50508160011b916000199060031b1c1916176002555b8051906001600160401b038211620004165760035490600182811c92168015620008fd575b6020831014620005c45781601f84931162000889575b50602090601f8311600114620007fa57600092620007ee575b50508160011b916000199060031b1c1916176003555b60088054336001600160a01b0319821681179092556040516001600160a01b039c9290918d167f8be0079c531659141344cd1fd0a4f28419497f9722a3daafe3b4186f6b6457e0600080a38b821615620007ac57508a8516156200076757881562000714578715620006bf57428211156200067a576064871162000629578a8c1615620005e55785516001600160401b038111620004165760095496600188811c98168015620005da575b6020891014620005c45787601f8e991162000562575b50602090601f8311600114620004ec578893929160009183620004e0575b50508160011b916000199060031b1c1916176009555b1660018060a01b0319600a541617600a5586600b5587600c55600d5561ff0060115491600084600014620004d857505b62010000600160b01b039060101b1692151560081b1690610100600160b01b03191617176011551660018060a01b0319601254161760125560135583851660018060a01b031960145416176014550480600e551562000484576127106001600160601b038216116200042c57604080519081016001600160401b0381118282101762000416576040908152939092168083526001600160601b03821660209093019290925260a01b6001600160a01b0319161760005551612139908162000a758239f35b634e487b7160e01b600052604160045260246000fd5b60405162461bcd60e51b815260206004820152602a60248201527f455243323938313a20726f79616c7479206665652077696c6c206578636565646044820152692073616c65507269636560b01b6064820152608490fd5b60405162461bcd60e51b815260206004820152602660248201527f546f74616c20736861726573206d7573742062652067726561746572207468616044820152656e207a65726f60d01b6064820152608490fd5b905062000352565b0151905038806200030c565b90600960005260206000209160005b601f19851681106200054657509183916001938b9695601f198116106200052c575b505050811b0160095562000322565b015160001960f88460031b161c191690553880806200051d565b8183015184558f9a5060019093019260209283019201620004fb565b90919293949596975060096000526020600020601f840160051c810160208510620005bc575b908e9998979695949392915b601f830160051c82018110620005ac575050620002ee565b600081558f9a5060010162000594565b508062000588565b634e487b7160e01b600052602260045260246000fd5b97607f1697620002d8565b606460405162461bcd60e51b815260206004820152602060248201527f496e76616c696420726f79616c747920726563656976657220616464726573736044820152fd5b60405162461bcd60e51b8152602060048201526024808201527f436f6d6d697373696f6e2070657263656e742063616e6e6f74206578636565646044820152630203130360e41b6064820152608490fd5b60405162461bcd60e51b815260206004820152601e60248201527f456e642074696d65206d75737420626520696e207468652066757475726500006044820152606490fd5b60405162461bcd60e51b815260206004820152602760248201527f54617267657420616d6f756e74206d7573742062652067726561746572207468604482015266616e207a65726f60c81b6064820152608490fd5b60405162461bcd60e51b815260206004820152602560248201527f5368617265207072696365206d7573742062652067726561746572207468616e604482015264207a65726f60d81b6064820152608490fd5b60405162461bcd60e51b815260206004820152601860248201527f496e76616c6964207472656173757279206164647265737300000000000000006044820152606490fd5b62461bcd60e51b815260206004820152601760248201527f496e76616c6964207374617274757020616464726573730000000000000000006044820152606490fd5b01519050388062000217565b6003600090815293507fc2575a0e9e593c00f959f8c92f12db2869c3395a3b0502d05e2516446f71f85b91905b601f19841685106200086d576001945083601f1981161062000853575b505050811b016003556200022d565b015160001960f88460031b161c1916905538808062000844565b8181015183556020948501946001909301929091019062000827565b60036000529091507fc2575a0e9e593c00f959f8c92f12db2869c3395a3b0502d05e2516446f71f85b6005601f8501811c820160208610620008f5575b9085949392915b601f8401821c83018110620008e557505050620001fe565b60008155869550600101620008cd565b5081620008c6565b91607f1691620001e8565b015190503880620001ad565b60026000908152935060008051602062002bae83398151915291905b601f198416851062000976576001945083601f198116106200095c575b505050811b01600255620001c3565b015160001960f88460031b161c191690553880806200094d565b8181015183556020948501946001909301929091019062000930565b600260005290915060008051602062002bae833981519152601f840160051c810160208510620009eb575b90849392915b601f830160051c82018110620009db57505062000194565b60008155859450600101620009c3565b5080620009bd565b91607f16916200017e565b600080fd5b8060208092840101518282890101520162000099565b60408051919082016001600160401b038111838210176200041657604052565b6040519190601f01601f191682016001600160401b038111838210176200041657604052565b51906001600160a01b0382168203620009fe5756fe6080604081815260048036101561001e575b505050366120bf576120bf565b600092833560e01c90816301ffc9a7146115935750806302fa7c471461144d57806306fdde03146113805780630724fda9146112b3578063081812fc14611293578063095ea7b3146111235780631810d859146110eb578063192fc516146110cc57806323b872dd146110a25780632a55205a146110045780633197cbb614610fe55780633a98ef3914610fc65780633bfb6e3114610f9957806342842e0e14610f7057806361d027b314610f475780636352211e14610f165780636681b9fd14610ef757806370a0823114610e61578063715018a614610e04578063727abbb014610b1557806377d3550b14610af65780637f51bb1f14610a5f5780638726972914610a405780638da5cb5b14610a17578063953b8fb8146109f857806395d89b41146108e15780639def2d89146108ba5780639fbc871314610891578063a1211bc014610875578063a22cb465146107a6578063b3892c641461077d578063b3f05b9714610759578063b88d4fde146106d3578063c87b56dd14610663578063d1a93d1814610359578063db2e21bc146102e4578063e985e9c5146102925763f2fde38b03610011573461028e57602036600319011261028e576101e2611619565b906101eb61174b565b6001600160a01b0391821692831561023c575050600854826001600160601b0360a01b821617600855167f8be0079c531659141344cd1fd0a4f28419497f9722a3daafe3b4186f6b6457e08380a380f35b906020608492519162461bcd60e51b8352820152602660248201527f4f776e61626c653a206e6577206f776e657220697320746865207a65726f206160448201526564647265737360d01b6064820152fd5b8280fd5b5050346102e057806003193601126102e05760ff816020936102b2611619565b6102ba611634565b6001600160a01b0391821683526007875283832091168252855220549151911615158152f35b5080fd5b503461028e578260031936011261028e576102fd61174b565b4791821561032157600854849061031e9085906001600160a01b0316611d76565b80f35b906020606492519162461bcd60e51b835282015260126024820152714e6f2045544820746f20776974686472617760701b6044820152fd5b50919060208060031936011261028e5783359161037a600d54421115611c7a565b601161038a60ff82541615611cbc565b600f610397858254611d01565b600e5410610620576103ab600c5486611c51565b34036105dd57600a546001600160a01b03979088163314610584576103fc6064939293986103f48a6103df60135434611c51565b046103ea8134611d0e565b9260125416611d76565b601054611d01565b60105561040a868454611d01565b835533875260158552838720610421878254611d01565b9055331591875b8781106104635788887f303026f7fc6b5fe40cf1b1ca575a6f395b34145669a68563671a5fc8334f341d8989519283523392a261031e611e51565b610477816104728a8854611d0e565b611d01565b600180820180921161057257856105325760008281526004602052604090205461052d939291906104b4906001600160a01b031615155b15611d2a565b6000828152600460205260409020546104d7906001600160a01b031615156104ae565b338c5260058a52888c20908154019055808b52848952878b20336001600160601b0360a01b825416179055338b7fddf252ad1be2c89b69c2b068fc378daa952ba7f163c4a11628f55a4df523b3ef8180a4611d1b565b610428565b8b858a808b519262461bcd60e51b845283015260248201527f4552433732313a206d696e7420746f20746865207a65726f20616464726573736044820152fd5b634e487b7160e01b8b5283855260248bfd5b835162461bcd60e51b8152908101859052602d60248201527f43616d706169676e2063726561746f722063616e6e6f7420627579207468656960448201526c391037bbb71039b430b932b99760991b6064820152608490fd5b825162461bcd60e51b8152808801859052601a60248201527f496e636f72726563742045544820616d6f756e742073656e742e0000000000006044820152606490fd5b825162461bcd60e51b8152808801859052601c60248201527f4e6f7420656e6f7567682073686172657320617661696c61626c652e000000006044820152606490fd5b509190346102e05760203660031901126102e0576106a261069d6106cf9435600052600460205260018060a01b0360406000205416151590565b6117a3565b8181516106ae816116bc565b528051916106bb836116bc565b82525191829160208352602083019061164a565b0390f35b50903461028e57608036600319011261028e576106ee611619565b6106f6611634565b846064359467ffffffffffffffff86116102e057366023870112156102e0578501359461072e6107258761172f565b955195866116d8565b85855236602487830101116102e0578561031e966024602093018388013785010152604435916118b5565b5050346102e057816003193601126102e05760209060ff6011541690519015158152f35b5050346102e057816003193601126102e057600a5490516001600160a01b039091168152602090f35b50903461028e578060031936011261028e576107c0611619565b9060243591821515809303610871576001600160a01b03169233841461082f5750338452600760205280842083855260205280842060ff1981541660ff8416179055519081527f17307eab39ab6107e8899845ad3d59bd9653f200f220920489ca2b5937696c3160203392a380f35b6020606492519162461bcd60e51b8352820152601960248201527f4552433732313a20617070726f766520746f2063616c6c6572000000000000006044820152fd5b8480fd5b833461088e578060031936011261088e5761031e611e88565b80fd5b5050346102e057816003193601126102e05760145490516001600160a01b039091168152602090f35b5050346102e057816003193601126102e05760209060ff60115460081c1690519015158152f35b50913461088e578060031936011261088e578151918160035492600184811c918186169586156109ee575b60209687851081146109db578899509688969785829a5291826000146109b4575050600114610958575b5050506106cf92916109499103856116d8565b5192828493845283019061164a565b9190869350600383527fc2575a0e9e593c00f959f8c92f12db2869c3395a3b0502d05e2516446f71f85b5b82841061099c57505050820101816109496106cf610936565b8054848a018601528895508794909301928101610983565b60ff19168782015293151560051b8601909301935084925061094991506106cf9050610936565b634e487b7160e01b835260228a52602483fd5b92607f169261090c565b5050346102e057816003193601126102e057602090600b549051908152f35b5050346102e057816003193601126102e05760085490516001600160a01b039091168152602090f35b5050346102e057816003193601126102e057602090600c549051908152f35b503461028e57602036600319011261028e57610a79611619565b600a546001600160a01b039190610a939083163314612062565b16918215610ab35750506001600160601b0360a01b601254161760125580f35b906020606492519162461bcd60e51b8352820152601860248201527f496e76616c6964207472656173757279206164647265737300000000000000006044820152fd5b5050346102e057816003193601126102e0576020906013549051908152f35b509190346102e057806003193601126102e057823590602480359067ffffffffffffffff808311610e005736602384011215610e005782870135908111610e00576005368383831b86010111610dfc57610b73600d54421115611c7a565b610b8260ff6011541615611cbc565b33875260209260158452868689205410610dbb57868303610d6157610ba9600c5488611c51565b9860558a0299808b0460551490151715610d50576064809a0495895b898110610c44578a8a7fbb0b559a8cec57e45f96b1dabfa10d9feb90a11836e2c6538452370e9a430c138b8b8b33865260158152828620610c07868254611d0e565b9055610c1585600f54611d0e565b600f55610c2482601054611d0e565b601055610c318233611d76565b82519485528401523392a261031e611e51565b85811015610d3e5780851b82018401356001600160a01b033381610c67846117ef565b1603610cfd57908c610cf89392610c7d836117ef565b50610c87836117ef565b83835260068c528d832080546001600160a01b03199081169091559116808352898c528d83208054600019019055838352878c528d832080549092169091557fddf252ad1be2c89b69c2b068fc378daa952ba7f163c4a11628f55a4df523b3ef8280a4600188528b8a812055611d1b565b610bc5565b8a5162461bcd60e51b81528086018a90526018818801527f596f7520646f206e6f74206f776e2074686973204e46542e000000000000000060448201528e90fd5b634e487b7160e01b8b5260328352838bfd5b634e487b7160e01b89526011905287fd5b8860306084928689519362461bcd60e51b85528401528201527f4e756d626572206f6620746f6b656e20494473206d757374206d61746368206e60448201526f3ab6b132b91037b31039b430b932b99760811b6064820152fd5b88601c6064928689519362461bcd60e51b85528401528201527f4e6f7420656e6f7567682073686172657320746f20726566756e642e000000006044820152fd5b8680fd5b8580fd5b833461088e578060031936011261088e57610e1d61174b565b600880546001600160a01b0319811690915581906001600160a01b03167f8be0079c531659141344cd1fd0a4f28419497f9722a3daafe3b4186f6b6457e08280a380f35b508290346102e05760203660031901126102e0576001600160a01b03610e85611619565b16908115610ea25760208480858581526005845220549051908152f35b608490602085519162461bcd60e51b8352820152602960248201527f4552433732313a2061646472657373207a65726f206973206e6f7420612076616044820152683634b21037bbb732b960b91b6064820152fd5b5050346102e057816003193601126102e0576020906010549051908152f35b50913461088e57602036600319011261088e5750610f36602092356117ef565b90516001600160a01b039091168152f35b5050346102e057816003193601126102e05760125490516001600160a01b039091168152602090f35b5050346102e05761031e90610f84366116fa565b91925192610f91846116bc565b8584526118b5565b5050346102e057816003193601126102e057601154905160109190911c6001600160a01b03168152602090f35b5050346102e057816003193601126102e057602090600e549051908152f35b5050346102e057816003193601126102e057602090600d549051908152f35b508290346102e057826003193601126102e057358152600160205281812082519061102e8261168a565b546001600160a01b0380821680845260a09290921c60208401529192901561107f575b5061271061106e6001600160601b03602085015116602435611c51565b049151169082519182526020820152f35b835191925061108d8261168a565b54828116825260a01c60208201529083611051565b833461088e5761031e6110b4366116fa565b916110c76110c28433611950565b611853565b611a18565b5050346102e057816003193601126102e057602090600f549051908152f35b5050346102e05760203660031901126102e05760209181906001600160a01b03611113611619565b1681526015845220549051908152f35b503461028e578160031936011261028e5761113c611619565b6024359290916001600160a01b0391908280611157876117ef565b1694169380851461124657803314908115611227575b50156111bf57508385526006602052842080546001600160a01b03191683179055611197836117ef565b167f8c5be1e5ebec7d5bd14f71427d1e84f3dd0314c0f7b2291e5b200ac8c7c3b9258480a480f35b6020608492519162461bcd60e51b8352820152603d60248201527f4552433732313a20617070726f76652063616c6c6572206973206e6f7420746f60448201527f6b656e206f776e6572206f7220617070726f76656420666f7220616c6c0000006064820152fd5b90508652600760205281862033875260205260ff82872054163861116d565b506020608492519162461bcd60e51b8352820152602160248201527f4552433732313a20617070726f76616c20746f2063757272656e74206f776e656044820152603960f91b6064820152fd5b50913461088e57602036600319011261088e5750610f3660209235611815565b50913461088e578060031936011261088e578151918160095492600184811c91818616958615611376575b60209687851081146109db578899509688969785829a5291826000146109b457505060011461131a575050506106cf92916109499103856116d8565b9190869350600983527f6e1540171b6c0c960b71a7020d9f60077f6af931a8bbf590da0223dacf75c7af5b82841061135e57505050820101816109496106cf610936565b8054848a018601528895508794909301928101611345565b92607f16926112de565b50913461088e578060031936011261088e578151918160025492600184811c91818616958615611443575b60209687851081146109db578899509688969785829a5291826000146109b45750506001146113e7575050506106cf92916109499103856116d8565b9190869350600283527f405787fa12a823e0f2b7631cc41b3ba8828b3321ca811111fa75cd3aa3bb5ace5b82841061142b57505050820101816109496106cf610936565b8054848a018601528895508794909301928101611412565b92607f16926113ab565b50903461028e578060031936011261028e57611467611619565b916024356001600160601b03811693848203610e0057600a546001600160a01b0391906114979083163314612062565b169182156115505761271085116114fa57509183916020937f286671b4039436f3aa3e551ce5dc76fbf4dae750028cbc933c7b30db3aa355bc958584516114dd8161168a565b848152015260a01b6001600160a01b03191617855551908152a180f35b608490602085519162461bcd60e51b8352820152602a60248201527f455243323938313a20726f79616c7479206665652077696c6c206578636565646044820152692073616c65507269636560b01b6064820152fd5b606490602085519162461bcd60e51b8352820152602060248201527f496e76616c696420726f79616c747920726563656976657220616464726573736044820152fd5b9250503461028e57602036600319011261028e573563ffffffff60e01b811680910361028e57602092506380ac58cd60e01b8114908115611608575b81156115dd575b5015158152f35b63152a902d60e11b8114915081156115f7575b50386115d6565b6301ffc9a760e01b149050386115f0565b635b5e139f60e01b811491506115cf565b600435906001600160a01b038216820361162f57565b600080fd5b602435906001600160a01b038216820361162f57565b919082519283825260005b848110611676575050826000602080949584010152601f8019910116010190565b602081830181015184830182015201611655565b6040810190811067ffffffffffffffff8211176116a657604052565b634e487b7160e01b600052604160045260246000fd5b6020810190811067ffffffffffffffff8211176116a657604052565b90601f8019910116810190811067ffffffffffffffff8211176116a657604052565b606090600319011261162f576001600160a01b0390600435828116810361162f5791602435908116810361162f579060443590565b67ffffffffffffffff81116116a657601f01601f191660200190565b6008546001600160a01b0316330361175f57565b606460405162461bcd60e51b815260206004820152602060248201527f4f776e61626c653a2063616c6c6572206973206e6f7420746865206f776e65726044820152fd5b156117aa57565b60405162461bcd60e51b815260206004820152601860248201527f4552433732313a20696e76616c696420746f6b656e20494400000000000000006044820152606490fd5b6000908152600460205260409020546001600160a01b03166118128115156117a3565b90565b600081815260046020526040902054611838906001600160a01b031615156117a3565b6000908152600660205260409020546001600160a01b031690565b1561185a57565b60405162461bcd60e51b815260206004820152602d60248201527f4552433732313a2063616c6c6572206973206e6f7420746f6b656e206f776e6560448201526c1c881bdc88185c1c1c9bdd9959609a1b6064820152608490fd5b906118d99392916118c96110c28433611950565b6118d4838383611a18565b611b59565b156118e057565b60405162461bcd60e51b8152806118f9600482016118fd565b0390fd5b60809060208152603260208201527f4552433732313a207472616e7366657220746f206e6f6e20455243373231526560408201527131b2b4bb32b91034b6b83632b6b2b73a32b960711b60608201520190565b906001600160a01b038080611964846117ef565b16931691838314938415611997575b508315611981575b50505090565b61198d91929350611815565b161438808061197b565b909350600052600760205260406000208260005260205260ff604060002054169238611973565b156119c557565b60405162461bcd60e51b815260206004820152602560248201527f4552433732313a207472616e736665722066726f6d20696e636f72726563742060448201526437bbb732b960d91b6064820152608490fd5b90611a4091611a26846117ef565b6001600160a01b03939184169284929091831684146119be565b16918215611ad85781611a5d91611a56866117ef565b16146119be565b7fddf252ad1be2c89b69c2b068fc378daa952ba7f163c4a11628f55a4df523b3ef60008481526006602052604081206001600160601b0360a01b9081815416905583825260056020526040822060001981540190558482526040822060018154019055858252600460205284604083209182541617905580a4565b60405162461bcd60e51b8152602060048201526024808201527f4552433732313a207472616e7366657220746f20746865207a65726f206164646044820152637265737360e01b6064820152608490fd5b3d15611b54573d90611b3a8261172f565b91611b4860405193846116d8565b82523d6000602084013e565b606090565b91926000929190813b15611c4757602091611baf9185604051958680958194630a85bd0160e11b9b8c845233600485015260018060a01b038095166024850152604484015260806064840152608483019061164a565b0393165af190829082611bff575b5050611bf157611bcb611b29565b80519081611bec5760405162461bcd60e51b8152806118f9600482016118fd565b602001fd5b6001600160e01b0319161490565b909192506020813d8211611c3f575b81611c1b602093836116d8565b810103126102e05751906001600160e01b03198216820361088e5750903880611bbd565b3d9150611c0e565b5050505050600190565b81810292918115918404141715611c6457565b634e487b7160e01b600052601160045260246000fd5b15611c8157565b60405162461bcd60e51b815260206004820152601360248201527221b0b6b830b4b3b7103430b99032b73232b21760691b6044820152606490fd5b15611cc357565b60405162461bcd60e51b815260206004820152601660248201527521b0b6b830b4b3b71034b9903334b730b634bd32b21760511b6044820152606490fd5b91908201809211611c6457565b91908203918211611c6457565b6000198114611c645760010190565b15611d3157565b60405162461bcd60e51b815260206004820152601c60248201527f4552433732313a20746f6b656e20616c7265616479206d696e746564000000006044820152606490fd5b814710611e0c576000918291829182916001600160a01b03165af1611d99611b29565b5015611da157565b60405162461bcd60e51b815260206004820152603a60248201527f416464726573733a20756e61626c6520746f2073656e642076616c75652c207260448201527f6563697069656e74206d617920686176652072657665727465640000000000006064820152608490fd5b60405162461bcd60e51b815260206004820152601d60248201527f416464726573733a20696e73756666696369656e742062616c616e63650000006044820152606490fd5b60ff601154161580611e6e575b611e6457565b611e6c611e88565b565b50601054600b54111580611e5e5750600d54421015611e5e565b60115460ff811661201d57600d5490814211801561200f575b15611fcb576001907f4d61895c9fa0d080c0e00b846f4636055b4ea61ae134c57096b3335edbcd17ca60e060105494600b546040519160a08352601360a0840152722334b730b634bd34b7339031b0b6b830b4b3b760691b60c084015242602084015260408301528660608301526080820152a160ff19161760115580611f58575b507f170c266b6c51c5ee0e58a9ff23f733b295ff6c6b28f3c61a2ed3dc74a0902f2d6020601054600b541115604051908152a1565b611fc59060018060a01b03600a54167f17a789819fcedb3fd9d53e652a5050583cd555f529a4323010a3e73ae0d61d5a60a06040516060815260126060820152715472616e7366657272696e672066756e647360701b6080820152846020820152836040820152a1611d76565b38611f23565b606460405162461bcd60e51b815260206004820152602060248201527f43616d706169676e2063616e6e6f742062652066696e616c697a6564207965746044820152fd5b50601054600b541115611ea1565b60405162461bcd60e51b815260206004820152601e60248201527f43616d706169676e20697320616c72656164792066696e616c697a65642e00006044820152606490fd5b1561206957565b60405162461bcd60e51b815260206004820152602860248201527f4f6e6c79207468652063616d706169676e2063726561746f722063616e2063616044820152673636103a3434b99760c11b6064820152608490fd5b606460405162461bcd60e51b815260206004820152602060248201527f44697265637420455448207472616e7366657273206e6f7420616c6c6f7765646044820152fdfea26469706673582212205ef4e4195b23eccd2d9e4f8d3680e1754a9d8daef2ced32d0c25893d42a5a5d164736f6c63430008130033405787fa12a823e0f2b7631cc41b3ba8828b3321ca811111fa75cd3aa3bb5acea2646970667358221220664cc7323273c110ba4f7a07ba69c5e0db0dd77f0dec4d6bbbbdb097a0c8431064736f6c63430008130033",
  "linkReferences": {},
  "deployedLinkReferences": {}
}