{
  "contracts/Campaign.sol": {
    "Campaign": {
      "abi": [
        {
          "inputs": [
            {
              "internalType": "address",
              "name": "_startup",
              "type": "address"
            },
            {
              "internalType": "string",
              "name": "_campaignName",
              "type": "string"
            },
            {
              "internalType": "uint256",
              "name": "_targetAmount",
              "type": "uint256"
            },
            {
              "internalType": "uint256",
              "name": "_sharePrice",
              "type": "uint256"
            },
            {
              "internalType": "uint256",
              "name": "_endTime",
              "type": "uint256"
            },
            {
              "internalType": "bool",
              "name": "_certified",
              "type": "bool"
            },
            {
              "internalType": "address",
              "name": "_lawyer",
              "type": "address"
            },
            {
              "internalType": "address",
              "name": "_treasury",
              "type": "address"
            },
            {
              "internalType": "uint256",
              "name": "_commissionPercent",
              "type": "uint256"
            },
            {
              "internalType": "uint96",
              "name": "_royaltyFee",
              "type": "uint96"
            },
            {
              "internalType": "address",
              "name": "_royaltyReceiver",
              "type": "address"
            }
          ],
          "stateMutability": "nonpayable",
          "type": "constructor"
        },
        {
          "anonymous": false,
          "inputs": [
            {
              "indexed": true,
              "internalType": "address",
              "name": "owner",
              "type": "address"
            },
            {
              "indexed": true,
              "internalType": "address",
              "name": "approved",
              "type": "address"
            },
            {
              "indexed": true,
              "internalType": "uint256",
              "name": "tokenId",
              "type": "uint256"
            }
          ],
          "name": "Approval",
          "type": "event"
        },
        {
          "anonymous": false,
          "inputs": [
            {
              "indexed": true,
              "internalType": "address",
              "name": "owner",
              "type": "address"
            },
            {
              "indexed": true,
              "internalType": "address",
              "name": "operator",
              "type": "address"
            },
            {
              "indexed": false,
              "internalType": "bool",
              "name": "approved",
              "type": "bool"
            }
          ],
          "name": "ApprovalForAll",
          "type": "event"
        },
        {
          "anonymous": false,
          "inputs": [
            {
              "indexed": false,
              "internalType": "bool",
              "name": "success",
              "type": "bool"
            }
          ],
          "name": "CampaignFinalized",
          "type": "event"
        },
        {
          "anonymous": false,
          "inputs": [
            {
              "indexed": false,
              "internalType": "string",
              "name": "message",
              "type": "string"
            },
            {
              "indexed": false,
              "internalType": "uint256",
              "name": "value",
              "type": "uint256"
            },
            {
              "indexed": false,
              "internalType": "address",
              "name": "to",
              "type": "address"
            }
          ],
          "name": "LogDebugAddress",
          "type": "event"
        },
        {
          "anonymous": false,
          "inputs": [
            {
              "indexed": false,
              "internalType": "string",
              "name": "message",
              "type": "string"
            },
            {
              "indexed": false,
              "internalType": "uint256",
              "name": "value1",
              "type": "uint256"
            },
            {
              "indexed": false,
              "internalType": "uint256",
              "name": "value2",
              "type": "uint256"
            },
            {
              "indexed": false,
              "internalType": "uint256",
              "name": "value3",
              "type": "uint256"
            },
            {
              "indexed": false,
              "internalType": "uint256",
              "name": "value4",
              "type": "uint256"
            }
          ],
          "name": "LogDebugDetail",
          "type": "event"
        },
        {
          "anonymous": false,
          "inputs": [
            {
              "indexed": true,
              "internalType": "address",
              "name": "previousOwner",
              "type": "address"
            },
            {
              "indexed": true,
              "internalType": "address",
              "name": "newOwner",
              "type": "address"
            }
          ],
          "name": "OwnershipTransferred",
          "type": "event"
        },
        {
          "anonymous": false,
          "inputs": [
            {
              "indexed": false,
              "internalType": "uint96",
              "name": "newRoyaltyFee",
              "type": "uint96"
            }
          ],
          "name": "RoyaltiesUpdated",
          "type": "event"
        },
        {
          "anonymous": false,
          "inputs": [
            {
              "indexed": true,
              "internalType": "address",
              "name": "investor",
              "type": "address"
            },
            {
              "indexed": false,
              "internalType": "uint256",
              "name": "numShares",
              "type": "uint256"
            }
          ],
          "name": "SharesPurchased",
          "type": "event"
        },
        {
          "anonymous": false,
          "inputs": [
            {
              "indexed": true,
              "internalType": "address",
              "name": "investor",
              "type": "address"
            },
            {
              "indexed": false,
              "internalType": "uint256",
              "name": "numShares",
              "type": "uint256"
            },
            {
              "indexed": false,
              "internalType": "uint256",
              "name": "refundAmount",
              "type": "uint256"
            }
          ],
          "name": "SharesRefunded",
          "type": "event"
        },
        {
          "anonymous": false,
          "inputs": [
            {
              "indexed": true,
              "internalType": "address",
              "name": "from",
              "type": "address"
            },
            {
              "indexed": true,
              "internalType": "address",
              "name": "to",
              "type": "address"
            },
            {
              "indexed": true,
              "internalType": "uint256",
              "name": "tokenId",
              "type": "uint256"
            }
          ],
          "name": "Transfer",
          "type": "event"
        },
        {
          "stateMutability": "payable",
          "type": "fallback"
        },
        {
          "inputs": [
            {
              "internalType": "address",
              "name": "to",
              "type": "address"
            },
            {
              "internalType": "uint256",
              "name": "tokenId",
              "type": "uint256"
            }
          ],
          "name": "approve",
          "outputs": [],
          "stateMutability": "nonpayable",
          "type": "function"
        },
        {
          "inputs": [
            {
              "internalType": "address",
              "name": "owner",
              "type": "address"
            }
          ],
          "name": "balanceOf",
          "outputs": [
            {
              "internalType": "uint256",
              "name": "",
              "type": "uint256"
            }
          ],
          "stateMutability": "view",
          "type": "function"
        },
        {
          "inputs": [
            {
              "internalType": "uint256",
              "name": "_numShares",
              "type": "uint256"
            }
          ],
          "name": "buyShares",
          "outputs": [],
          "stateMutability": "payable",
          "type": "function"
        },
        {
          "inputs": [],
          "name": "campaignName",
          "outputs": [
            {
              "internalType": "string",
              "name": "",
              "type": "string"
            }
          ],
          "stateMutability": "view",
          "type": "function"
        },
        {
          "inputs": [],
          "name": "certified",
          "outputs": [
            {
              "internalType": "bool",
              "name": "",
              "type": "bool"
            }
          ],
          "stateMutability": "view",
          "type": "function"
        },
        {
          "inputs": [],
          "name": "commissionPercent",
          "outputs": [
            {
              "internalType": "uint256",
              "name": "",
              "type": "uint256"
            }
          ],
          "stateMutability": "view",
          "type": "function"
        },
        {
          "inputs": [],
          "name": "emergencyWithdraw",
          "outputs": [],
          "stateMutability": "nonpayable",
          "type": "function"
        },
        {
          "inputs": [],
          "name": "endTime",
          "outputs": [
            {
              "internalType": "uint256",
              "name": "",
              "type": "uint256"
            }
          ],
          "stateMutability": "view",
          "type": "function"
        },
        {
          "inputs": [],
          "name": "finalizeCampaign",
          "outputs": [],
          "stateMutability": "nonpayable",
          "type": "function"
        },
        {
          "inputs": [],
          "name": "finalized",
          "outputs": [
            {
              "internalType": "bool",
              "name": "",
              "type": "bool"
            }
          ],
          "stateMutability": "view",
          "type": "function"
        },
        {
          "inputs": [],
          "name": "fundsRaised",
          "outputs": [
            {
              "internalType": "uint256",
              "name": "",
              "type": "uint256"
            }
          ],
          "stateMutability": "view",
          "type": "function"
        },
        {
          "inputs": [
            {
              "internalType": "uint256",
              "name": "tokenId",
              "type": "uint256"
            }
          ],
          "name": "getApproved",
          "outputs": [
            {
              "internalType": "address",
              "name": "",
              "type": "address"
            }
          ],
          "stateMutability": "view",
          "type": "function"
        },
        {
          "inputs": [
            {
              "internalType": "address",
              "name": "owner",
              "type": "address"
            },
            {
              "internalType": "address",
              "name": "operator",
              "type": "address"
            }
          ],
          "name": "isApprovedForAll",
          "outputs": [
            {
              "internalType": "bool",
              "name": "",
              "type": "bool"
            }
          ],
          "stateMutability": "view",
          "type": "function"
        },
        {
          "inputs": [],
          "name": "lawyer",
          "outputs": [
            {
              "internalType": "address",
              "name": "",
              "type": "address"
            }
          ],
          "stateMutability": "view",
          "type": "function"
        },
        {
          "inputs": [],
          "name": "name",
          "outputs": [
            {
              "internalType": "string",
              "name": "",
              "type": "string"
            }
          ],
          "stateMutability": "view",
          "type": "function"
        },
        {
          "inputs": [],
          "name": "owner",
          "outputs": [
            {
              "internalType": "address",
              "name": "",
              "type": "address"
            }
          ],
          "stateMutability": "view",
          "type": "function"
        },
        {
          "inputs": [
            {
              "internalType": "uint256",
              "name": "tokenId",
              "type": "uint256"
            }
          ],
          "name": "ownerOf",
          "outputs": [
            {
              "internalType": "address",
              "name": "",
              "type": "address"
            }
          ],
          "stateMutability": "view",
          "type": "function"
        },
        {
          "inputs": [
            {
              "internalType": "uint256",
              "name": "_numShares",
              "type": "uint256"
            },
            {
              "internalType": "uint256[]",
              "name": "_tokenIds",
              "type": "uint256[]"
            }
          ],
          "name": "refundShares",
          "outputs": [],
          "stateMutability": "nonpayable",
          "type": "function"
        },
        {
          "inputs": [],
          "name": "renounceOwnership",
          "outputs": [],
          "stateMutability": "nonpayable",
          "type": "function"
        },
        {
          "inputs": [
            {
              "internalType": "uint256",
              "name": "tokenId",
              "type": "uint256"
            },
            {
              "internalType": "uint256",
              "name": "salePrice",
              "type": "uint256"
            }
          ],
          "name": "royaltyInfo",
          "outputs": [
            {
              "internalType": "address",
              "name": "",
              "type": "address"
            },
            {
              "internalType": "uint256",
              "name": "",
              "type": "uint256"
            }
          ],
          "stateMutability": "view",
          "type": "function"
        },
        {
          "inputs": [],
          "name": "royaltyReceiver",
          "outputs": [
            {
              "internalType": "address",
              "name": "",
              "type": "address"
            }
          ],
          "stateMutability": "view",
          "type": "function"
        },
        {
          "inputs": [
            {
              "internalType": "address",
              "name": "from",
              "type": "address"
            },
            {
              "internalType": "address",
              "name": "to",
              "type": "address"
            },
            {
              "internalType": "uint256",
              "name": "tokenId",
              "type": "uint256"
            }
          ],
          "name": "safeTransferFrom",
          "outputs": [],
          "stateMutability": "nonpayable",
          "type": "function"
        },
        {
          "inputs": [
            {
              "internalType": "address",
              "name": "from",
              "type": "address"
            },
            {
              "internalType": "address",
              "name": "to",
              "type": "address"
            },
            {
              "internalType": "uint256",
              "name": "tokenId",
              "type": "uint256"
            },
            {
              "internalType": "bytes",
              "name": "data",
              "type": "bytes"
            }
          ],
          "name": "safeTransferFrom",
          "outputs": [],
          "stateMutability": "nonpayable",
          "type": "function"
        },
        {
          "inputs": [
            {
              "internalType": "address",
              "name": "operator",
              "type": "address"
            },
            {
              "internalType": "bool",
              "name": "approved",
              "type": "bool"
            }
          ],
          "name": "setApprovalForAll",
          "outputs": [],
          "stateMutability": "nonpayable",
          "type": "function"
        },
        {
          "inputs": [
            {
              "internalType": "address",
              "name": "_receiver",
              "type": "address"
            },
            {
              "internalType": "uint96",
              "name": "_feeNumerator",
              "type": "uint96"
            }
          ],
          "name": "setRoyaltyInfo",
          "outputs": [],
          "stateMutability": "nonpayable",
          "type": "function"
        },
        {
          "inputs": [],
          "name": "sharePrice",
          "outputs": [
            {
              "internalType": "uint256",
              "name": "",
              "type": "uint256"
            }
          ],
          "stateMutability": "view",
          "type": "function"
        },
        {
          "inputs": [
            {
              "internalType": "address",
              "name": "",
              "type": "address"
            }
          ],
          "name": "sharesOwned",
          "outputs": [
            {
              "internalType": "uint256",
              "name": "",
              "type": "uint256"
            }
          ],
          "stateMutability": "view",
          "type": "function"
        },
        {
          "inputs": [],
          "name": "sharesSold",
          "outputs": [
            {
              "internalType": "uint256",
              "name": "",
              "type": "uint256"
            }
          ],
          "stateMutability": "view",
          "type": "function"
        },
        {
          "inputs": [],
          "name": "startup",
          "outputs": [
            {
              "internalType": "address",
              "name": "",
              "type": "address"
            }
          ],
          "stateMutability": "view",
          "type": "function"
        },
        {
          "inputs": [
            {
              "internalType": "bytes4",
              "name": "interfaceId",
              "type": "bytes4"
            }
          ],
          "name": "supportsInterface",
          "outputs": [
            {
              "internalType": "bool",
              "name": "",
              "type": "bool"
            }
          ],
          "stateMutability": "view",
          "type": "function"
        },
        {
          "inputs": [],
          "name": "symbol",
          "outputs": [
            {
              "internalType": "string",
              "name": "",
              "type": "string"
            }
          ],
          "stateMutability": "view",
          "type": "function"
        },
        {
          "inputs": [],
          "name": "targetAmount",
          "outputs": [
            {
              "internalType": "uint256",
              "name": "",
              "type": "uint256"
            }
          ],
          "stateMutability": "view",
          "type": "function"
        },
        {
          "inputs": [
            {
              "internalType": "uint256",
              "name": "tokenId",
              "type": "uint256"
            }
          ],
          "name": "tokenURI",
          "outputs": [
            {
              "internalType": "string",
              "name": "",
              "type": "string"
            }
          ],
          "stateMutability": "view",
          "type": "function"
        },
        {
          "inputs": [],
          "name": "totalShares",
          "outputs": [
            {
              "internalType": "uint256",
              "name": "",
              "type": "uint256"
            }
          ],
          "stateMutability": "view",
          "type": "function"
        },
        {
          "inputs": [
            {
              "internalType": "address",
              "name": "from",
              "type": "address"
            },
            {
              "internalType": "address",
              "name": "to",
              "type": "address"
            },
            {
              "internalType": "uint256",
              "name": "tokenId",
              "type": "uint256"
            }
          ],
          "name": "transferFrom",
          "outputs": [],
          "stateMutability": "nonpayable",
          "type": "function"
        },
        {
          "inputs": [
            {
              "internalType": "address",
              "name": "newOwner",
              "type": "address"
            }
          ],
          "name": "transferOwnership",
          "outputs": [],
          "stateMutability": "nonpayable",
          "type": "function"
        },
        {
          "inputs": [],
          "name": "treasury",
          "outputs": [
            {
              "internalType": "address",
              "name": "",
              "type": "address"
            }
          ],
          "stateMutability": "view",
          "type": "function"
        },
        {
          "inputs": [
            {
              "internalType": "address",
              "name": "_newTreasury",
              "type": "address"
            }
          ],
          "name": "updateTreasury",
          "outputs": [],
          "stateMutability": "nonpayable",
          "type": "function"
        },
        {
          "stateMutability": "payable",
          "type": "receive"
        }
      ],
      "evm": {
        "bytecode": {
          "linkReferences": {},
          "object": "608060405234620009fe5762002bce803803806200001d8162000a39565b92833981019061016081830312620009fe576200003a8162000a5f565b60208201519091906001600160401b038111620009fe57810183601f82011215620009fe578051906001600160401b038211620004165762000086601f8301601f191660200162000a39565b9482865260208383010111620009fe5760005b82811062000a03575050602060009185010152604081015160608201519060808301519460a0840151908115158203620009fe57620000db60c0860162000a5f565b91620000ea60e0870162000a5f565b90610100870151936101208801519760018060601b0389168903620009fe5761014062000118910162000a5f565b996200012362000a19565b600e81526d43616d706169676e53686172657360901b60208201526200014862000a19565b6003815262086a6960eb1b6020820152815190916001600160401b038211620004165760025490600182811c92168015620009f3575b6020831014620005c45781601f84931162000992575b50602090601f8311600114620009145760009262000908575b50508160011b916000199060031b1c1916176002555b8051906001600160401b038211620004165760035490600182811c92168015620008fd575b6020831014620005c45781601f84931162000889575b50602090601f8311600114620007fa57600092620007ee575b50508160011b916000199060031b1c1916176003555b60088054336001600160a01b0319821681179092556040516001600160a01b039c9290918d167f8be0079c531659141344cd1fd0a4f28419497f9722a3daafe3b4186f6b6457e0600080a38b821615620007ac57508a8516156200076757881562000714578715620006bf57428211156200067a576064871162000629578a8c1615620005e55785516001600160401b038111620004165760095496600188811c98168015620005da575b6020891014620005c45787601f8e991162000562575b50602090601f8311600114620004ec578893929160009183620004e0575b50508160011b916000199060031b1c1916176009555b1660018060a01b0319600a541617600a5586600b5587600c55600d5561ff0060115491600084600014620004d857505b62010000600160b01b039060101b1692151560081b1690610100600160b01b03191617176011551660018060a01b0319601254161760125560135583851660018060a01b031960145416176014550480600e551562000484576127106001600160601b038216116200042c57604080519081016001600160401b0381118282101762000416576040908152939092168083526001600160601b03821660209093019290925260a01b6001600160a01b0319161760005551612139908162000a758239f35b634e487b7160e01b600052604160045260246000fd5b60405162461bcd60e51b815260206004820152602a60248201527f455243323938313a20726f79616c7479206665652077696c6c206578636565646044820152692073616c65507269636560b01b6064820152608490fd5b60405162461bcd60e51b815260206004820152602660248201527f546f74616c20736861726573206d7573742062652067726561746572207468616044820152656e207a65726f60d01b6064820152608490fd5b905062000352565b0151905038806200030c565b90600960005260206000209160005b601f19851681106200054657509183916001938b9695601f198116106200052c575b505050811b0160095562000322565b015160001960f88460031b161c191690553880806200051d565b8183015184558f9a5060019093019260209283019201620004fb565b90919293949596975060096000526020600020601f840160051c810160208510620005bc575b908e9998979695949392915b601f830160051c82018110620005ac575050620002ee565b600081558f9a5060010162000594565b508062000588565b634e487b7160e01b600052602260045260246000fd5b97607f1697620002d8565b606460405162461bcd60e51b815260206004820152602060248201527f496e76616c696420726f79616c747920726563656976657220616464726573736044820152fd5b60405162461bcd60e51b8152602060048201526024808201527f436f6d6d697373696f6e2070657263656e742063616e6e6f74206578636565646044820152630203130360e41b6064820152608490fd5b60405162461bcd60e51b815260206004820152601e60248201527f456e642074696d65206d75737420626520696e207468652066757475726500006044820152606490fd5b60405162461bcd60e51b815260206004820152602760248201527f54617267657420616d6f756e74206d7573742062652067726561746572207468604482015266616e207a65726f60c81b6064820152608490fd5b60405162461bcd60e51b815260206004820152602560248201527f5368617265207072696365206d7573742062652067726561746572207468616e604482015264207a65726f60d81b6064820152608490fd5b60405162461bcd60e51b815260206004820152601860248201527f496e76616c6964207472656173757279206164647265737300000000000000006044820152606490fd5b62461bcd60e51b815260206004820152601760248201527f496e76616c6964207374617274757020616464726573730000000000000000006044820152606490fd5b01519050388062000217565b6003600090815293507fc2575a0e9e593c00f959f8c92f12db2869c3395a3b0502d05e2516446f71f85b91905b601f19841685106200086d576001945083601f1981161062000853575b505050811b016003556200022d565b015160001960f88460031b161c1916905538808062000844565b8181015183556020948501946001909301929091019062000827565b60036000529091507fc2575a0e9e593c00f959f8c92f12db2869c3395a3b0502d05e2516446f71f85b6005601f8501811c820160208610620008f5575b9085949392915b601f8401821c83018110620008e557505050620001fe565b60008155869550600101620008cd565b5081620008c6565b91607f1691620001e8565b015190503880620001ad565b60026000908152935060008051602062002bae83398151915291905b601f198416851062000976576001945083601f198116106200095c575b505050811b01600255620001c3565b015160001960f88460031b161c191690553880806200094d565b8181015183556020948501946001909301929091019062000930565b600260005290915060008051602062002bae833981519152601f840160051c810160208510620009eb575b90849392915b601f830160051c82018110620009db57505062000194565b60008155859450600101620009c3565b5080620009bd565b91607f16916200017e565b600080fd5b8060208092840101518282890101520162000099565b60408051919082016001600160401b038111838210176200041657604052565b6040519190601f01601f191682016001600160401b038111838210176200041657604052565b51906001600160a01b0382168203620009fe5756fe6080604081815260048036101561001e575b505050366120bf576120bf565b600092833560e01c90816301ffc9a7146115935750806302fa7c471461144d57806306fdde03146113805780630724fda9146112b3578063081812fc14611293578063095ea7b3146111235780631810d859146110eb578063192fc516146110cc57806323b872dd146110a25780632a55205a146110045780633197cbb614610fe55780633a98ef3914610fc65780633bfb6e3114610f9957806342842e0e14610f7057806361d027b314610f475780636352211e14610f165780636681b9fd14610ef757806370a0823114610e61578063715018a614610e04578063727abbb014610b1557806377d3550b14610af65780637f51bb1f14610a5f5780638726972914610a405780638da5cb5b14610a17578063953b8fb8146109f857806395d89b41146108e15780639def2d89146108ba5780639fbc871314610891578063a1211bc014610875578063a22cb465146107a6578063b3892c641461077d578063b3f05b9714610759578063b88d4fde146106d3578063c87b56dd14610663578063d1a93d1814610359578063db2e21bc146102e4578063e985e9c5146102925763f2fde38b03610011573461028e57602036600319011261028e576101e2611619565b906101eb61174b565b6001600160a01b0391821692831561023c575050600854826001600160601b0360a01b821617600855167f8be0079c531659141344cd1fd0a4f28419497f9722a3daafe3b4186f6b6457e08380a380f35b906020608492519162461bcd60e51b8352820152602660248201527f4f776e61626c653a206e6577206f776e657220697320746865207a65726f206160448201526564647265737360d01b6064820152fd5b8280fd5b5050346102e057806003193601126102e05760ff816020936102b2611619565b6102ba611634565b6001600160a01b0391821683526007875283832091168252855220549151911615158152f35b5080fd5b503461028e578260031936011261028e576102fd61174b565b4791821561032157600854849061031e9085906001600160a01b0316611d76565b80f35b906020606492519162461bcd60e51b835282015260126024820152714e6f2045544820746f20776974686472617760701b6044820152fd5b50919060208060031936011261028e5783359161037a600d54421115611c7a565b601161038a60ff82541615611cbc565b600f610397858254611d01565b600e5410610620576103ab600c5486611c51565b34036105dd57600a546001600160a01b03979088163314610584576103fc6064939293986103f48a6103df60135434611c51565b046103ea8134611d0e565b9260125416611d76565b601054611d01565b60105561040a868454611d01565b835533875260158552838720610421878254611d01565b9055331591875b8781106104635788887f303026f7fc6b5fe40cf1b1ca575a6f395b34145669a68563671a5fc8334f341d8989519283523392a261031e611e51565b610477816104728a8854611d0e565b611d01565b600180820180921161057257856105325760008281526004602052604090205461052d939291906104b4906001600160a01b031615155b15611d2a565b6000828152600460205260409020546104d7906001600160a01b031615156104ae565b338c5260058a52888c20908154019055808b52848952878b20336001600160601b0360a01b825416179055338b7fddf252ad1be2c89b69c2b068fc378daa952ba7f163c4a11628f55a4df523b3ef8180a4611d1b565b610428565b8b858a808b519262461bcd60e51b845283015260248201527f4552433732313a206d696e7420746f20746865207a65726f20616464726573736044820152fd5b634e487b7160e01b8b5283855260248bfd5b835162461bcd60e51b8152908101859052602d60248201527f43616d706169676e2063726561746f722063616e6e6f7420627579207468656960448201526c391037bbb71039b430b932b99760991b6064820152608490fd5b825162461bcd60e51b8152808801859052601a60248201527f496e636f72726563742045544820616d6f756e742073656e742e0000000000006044820152606490fd5b825162461bcd60e51b8152808801859052601c60248201527f4e6f7420656e6f7567682073686172657320617661696c61626c652e000000006044820152606490fd5b509190346102e05760203660031901126102e0576106a261069d6106cf9435600052600460205260018060a01b0360406000205416151590565b6117a3565b8181516106ae816116bc565b528051916106bb836116bc565b82525191829160208352602083019061164a565b0390f35b50903461028e57608036600319011261028e576106ee611619565b6106f6611634565b846064359467ffffffffffffffff86116102e057366023870112156102e0578501359461072e6107258761172f565b955195866116d8565b85855236602487830101116102e0578561031e966024602093018388013785010152604435916118b5565b5050346102e057816003193601126102e05760209060ff6011541690519015158152f35b5050346102e057816003193601126102e057600a5490516001600160a01b039091168152602090f35b50903461028e578060031936011261028e576107c0611619565b9060243591821515809303610871576001600160a01b03169233841461082f5750338452600760205280842083855260205280842060ff1981541660ff8416179055519081527f17307eab39ab6107e8899845ad3d59bd9653f200f220920489ca2b5937696c3160203392a380f35b6020606492519162461bcd60e51b8352820152601960248201527f4552433732313a20617070726f766520746f2063616c6c6572000000000000006044820152fd5b8480fd5b833461088e578060031936011261088e5761031e611e88565b80fd5b5050346102e057816003193601126102e05760145490516001600160a01b039091168152602090f35b5050346102e057816003193601126102e05760209060ff60115460081c1690519015158152f35b50913461088e578060031936011261088e578151918160035492600184811c918186169586156109ee575b60209687851081146109db578899509688969785829a5291826000146109b4575050600114610958575b5050506106cf92916109499103856116d8565b5192828493845283019061164a565b9190869350600383527fc2575a0e9e593c00f959f8c92f12db2869c3395a3b0502d05e2516446f71f85b5b82841061099c57505050820101816109496106cf610936565b8054848a018601528895508794909301928101610983565b60ff19168782015293151560051b8601909301935084925061094991506106cf9050610936565b634e487b7160e01b835260228a52602483fd5b92607f169261090c565b5050346102e057816003193601126102e057602090600b549051908152f35b5050346102e057816003193601126102e05760085490516001600160a01b039091168152602090f35b5050346102e057816003193601126102e057602090600c549051908152f35b503461028e57602036600319011261028e57610a79611619565b600a546001600160a01b039190610a939083163314612062565b16918215610ab35750506001600160601b0360a01b601254161760125580f35b906020606492519162461bcd60e51b8352820152601860248201527f496e76616c6964207472656173757279206164647265737300000000000000006044820152fd5b5050346102e057816003193601126102e0576020906013549051908152f35b509190346102e057806003193601126102e057823590602480359067ffffffffffffffff808311610e005736602384011215610e005782870135908111610e00576005368383831b86010111610dfc57610b73600d54421115611c7a565b610b8260ff6011541615611cbc565b33875260209260158452868689205410610dbb57868303610d6157610ba9600c5488611c51565b9860558a0299808b0460551490151715610d50576064809a0495895b898110610c44578a8a7fbb0b559a8cec57e45f96b1dabfa10d9feb90a11836e2c6538452370e9a430c138b8b8b33865260158152828620610c07868254611d0e565b9055610c1585600f54611d0e565b600f55610c2482601054611d0e565b601055610c318233611d76565b82519485528401523392a261031e611e51565b85811015610d3e5780851b82018401356001600160a01b033381610c67846117ef565b1603610cfd57908c610cf89392610c7d836117ef565b50610c87836117ef565b83835260068c528d832080546001600160a01b03199081169091559116808352898c528d83208054600019019055838352878c528d832080549092169091557fddf252ad1be2c89b69c2b068fc378daa952ba7f163c4a11628f55a4df523b3ef8280a4600188528b8a812055611d1b565b610bc5565b8a5162461bcd60e51b81528086018a90526018818801527f596f7520646f206e6f74206f776e2074686973204e46542e000000000000000060448201528e90fd5b634e487b7160e01b8b5260328352838bfd5b634e487b7160e01b89526011905287fd5b8860306084928689519362461bcd60e51b85528401528201527f4e756d626572206f6620746f6b656e20494473206d757374206d61746368206e60448201526f3ab6b132b91037b31039b430b932b99760811b6064820152fd5b88601c6064928689519362461bcd60e51b85528401528201527f4e6f7420656e6f7567682073686172657320746f20726566756e642e000000006044820152fd5b8680fd5b8580fd5b833461088e578060031936011261088e57610e1d61174b565b600880546001600160a01b0319811690915581906001600160a01b03167f8be0079c531659141344cd1fd0a4f28419497f9722a3daafe3b4186f6b6457e08280a380f35b508290346102e05760203660031901126102e0576001600160a01b03610e85611619565b16908115610ea25760208480858581526005845220549051908152f35b608490602085519162461bcd60e51b8352820152602960248201527f4552433732313a2061646472657373207a65726f206973206e6f7420612076616044820152683634b21037bbb732b960b91b6064820152fd5b5050346102e057816003193601126102e0576020906010549051908152f35b50913461088e57602036600319011261088e5750610f36602092356117ef565b90516001600160a01b039091168152f35b5050346102e057816003193601126102e05760125490516001600160a01b039091168152602090f35b5050346102e05761031e90610f84366116fa565b91925192610f91846116bc565b8584526118b5565b5050346102e057816003193601126102e057601154905160109190911c6001600160a01b03168152602090f35b5050346102e057816003193601126102e057602090600e549051908152f35b5050346102e057816003193601126102e057602090600d549051908152f35b508290346102e057826003193601126102e057358152600160205281812082519061102e8261168a565b546001600160a01b0380821680845260a09290921c60208401529192901561107f575b5061271061106e6001600160601b03602085015116602435611c51565b049151169082519182526020820152f35b835191925061108d8261168a565b54828116825260a01c60208201529083611051565b833461088e5761031e6110b4366116fa565b916110c76110c28433611950565b611853565b611a18565b5050346102e057816003193601126102e057602090600f549051908152f35b5050346102e05760203660031901126102e05760209181906001600160a01b03611113611619565b1681526015845220549051908152f35b503461028e578160031936011261028e5761113c611619565b6024359290916001600160a01b0391908280611157876117ef565b1694169380851461124657803314908115611227575b50156111bf57508385526006602052842080546001600160a01b03191683179055611197836117ef565b167f8c5be1e5ebec7d5bd14f71427d1e84f3dd0314c0f7b2291e5b200ac8c7c3b9258480a480f35b6020608492519162461bcd60e51b8352820152603d60248201527f4552433732313a20617070726f76652063616c6c6572206973206e6f7420746f60448201527f6b656e206f776e6572206f7220617070726f76656420666f7220616c6c0000006064820152fd5b90508652600760205281862033875260205260ff82872054163861116d565b506020608492519162461bcd60e51b8352820152602160248201527f4552433732313a20617070726f76616c20746f2063757272656e74206f776e656044820152603960f91b6064820152fd5b50913461088e57602036600319011261088e5750610f3660209235611815565b50913461088e578060031936011261088e578151918160095492600184811c91818616958615611376575b60209687851081146109db578899509688969785829a5291826000146109b457505060011461131a575050506106cf92916109499103856116d8565b9190869350600983527f6e1540171b6c0c960b71a7020d9f60077f6af931a8bbf590da0223dacf75c7af5b82841061135e57505050820101816109496106cf610936565b8054848a018601528895508794909301928101611345565b92607f16926112de565b50913461088e578060031936011261088e578151918160025492600184811c91818616958615611443575b60209687851081146109db578899509688969785829a5291826000146109b45750506001146113e7575050506106cf92916109499103856116d8565b9190869350600283527f405787fa12a823e0f2b7631cc41b3ba8828b3321ca811111fa75cd3aa3bb5ace5b82841061142b57505050820101816109496106cf610936565b8054848a018601528895508794909301928101611412565b92607f16926113ab565b50903461028e578060031936011261028e57611467611619565b916024356001600160601b03811693848203610e0057600a546001600160a01b0391906114979083163314612062565b169182156115505761271085116114fa57509183916020937f286671b4039436f3aa3e551ce5dc76fbf4dae750028cbc933c7b30db3aa355bc958584516114dd8161168a565b848152015260a01b6001600160a01b03191617855551908152a180f35b608490602085519162461bcd60e51b8352820152602a60248201527f455243323938313a20726f79616c7479206665652077696c6c206578636565646044820152692073616c65507269636560b01b6064820152fd5b606490602085519162461bcd60e51b8352820152602060248201527f496e76616c696420726f79616c747920726563656976657220616464726573736044820152fd5b9250503461028e57602036600319011261028e573563ffffffff60e01b811680910361028e57602092506380ac58cd60e01b8114908115611608575b81156115dd575b5015158152f35b63152a902d60e11b8114915081156115f7575b50386115d6565b6301ffc9a760e01b149050386115f0565b635b5e139f60e01b811491506115cf565b600435906001600160a01b038216820361162f57565b600080fd5b602435906001600160a01b038216820361162f57565b919082519283825260005b848110611676575050826000602080949584010152601f8019910116010190565b602081830181015184830182015201611655565b6040810190811067ffffffffffffffff8211176116a657604052565b634e487b7160e01b600052604160045260246000fd5b6020810190811067ffffffffffffffff8211176116a657604052565b90601f8019910116810190811067ffffffffffffffff8211176116a657604052565b606090600319011261162f576001600160a01b0390600435828116810361162f5791602435908116810361162f579060443590565b67ffffffffffffffff81116116a657601f01601f191660200190565b6008546001600160a01b0316330361175f57565b606460405162461bcd60e51b815260206004820152602060248201527f4f776e61626c653a2063616c6c6572206973206e6f7420746865206f776e65726044820152fd5b156117aa57565b60405162461bcd60e51b815260206004820152601860248201527f4552433732313a20696e76616c696420746f6b656e20494400000000000000006044820152606490fd5b6000908152600460205260409020546001600160a01b03166118128115156117a3565b90565b600081815260046020526040902054611838906001600160a01b031615156117a3565b6000908152600660205260409020546001600160a01b031690565b1561185a57565b60405162461bcd60e51b815260206004820152602d60248201527f4552433732313a2063616c6c6572206973206e6f7420746f6b656e206f776e6560448201526c1c881bdc88185c1c1c9bdd9959609a1b6064820152608490fd5b906118d99392916118c96110c28433611950565b6118d4838383611a18565b611b59565b156118e057565b60405162461bcd60e51b8152806118f9600482016118fd565b0390fd5b60809060208152603260208201527f4552433732313a207472616e7366657220746f206e6f6e20455243373231526560408201527131b2b4bb32b91034b6b83632b6b2b73a32b960711b60608201520190565b906001600160a01b038080611964846117ef565b16931691838314938415611997575b508315611981575b50505090565b61198d91929350611815565b161438808061197b565b909350600052600760205260406000208260005260205260ff604060002054169238611973565b156119c557565b60405162461bcd60e51b815260206004820152602560248201527f4552433732313a207472616e736665722066726f6d20696e636f72726563742060448201526437bbb732b960d91b6064820152608490fd5b90611a4091611a26846117ef565b6001600160a01b03939184169284929091831684146119be565b16918215611ad85781611a5d91611a56866117ef565b16146119be565b7fddf252ad1be2c89b69c2b068fc378daa952ba7f163c4a11628f55a4df523b3ef60008481526006602052604081206001600160601b0360a01b9081815416905583825260056020526040822060001981540190558482526040822060018154019055858252600460205284604083209182541617905580a4565b60405162461bcd60e51b8152602060048201526024808201527f4552433732313a207472616e7366657220746f20746865207a65726f206164646044820152637265737360e01b6064820152608490fd5b3d15611b54573d90611b3a8261172f565b91611b4860405193846116d8565b82523d6000602084013e565b606090565b91926000929190813b15611c4757602091611baf9185604051958680958194630a85bd0160e11b9b8c845233600485015260018060a01b038095166024850152604484015260806064840152608483019061164a565b0393165af190829082611bff575b5050611bf157611bcb611b29565b80519081611bec5760405162461bcd60e51b8152806118f9600482016118fd565b602001fd5b6001600160e01b0319161490565b909192506020813d8211611c3f575b81611c1b602093836116d8565b810103126102e05751906001600160e01b03198216820361088e5750903880611bbd565b3d9150611c0e565b5050505050600190565b81810292918115918404141715611c6457565b634e487b7160e01b600052601160045260246000fd5b15611c8157565b60405162461bcd60e51b815260206004820152601360248201527221b0b6b830b4b3b7103430b99032b73232b21760691b6044820152606490fd5b15611cc357565b60405162461bcd60e51b815260206004820152601660248201527521b0b6b830b4b3b71034b9903334b730b634bd32b21760511b6044820152606490fd5b91908201809211611c6457565b91908203918211611c6457565b6000198114611c645760010190565b15611d3157565b60405162461bcd60e51b815260206004820152601c60248201527f4552433732313a20746f6b656e20616c7265616479206d696e746564000000006044820152606490fd5b814710611e0c576000918291829182916001600160a01b03165af1611d99611b29565b5015611da157565b60405162461bcd60e51b815260206004820152603a60248201527f416464726573733a20756e61626c6520746f2073656e642076616c75652c207260448201527f6563697069656e74206d617920686176652072657665727465640000000000006064820152608490fd5b60405162461bcd60e51b815260206004820152601d60248201527f416464726573733a20696e73756666696369656e742062616c616e63650000006044820152606490fd5b60ff601154161580611e6e575b611e6457565b611e6c611e88565b565b50601054600b54111580611e5e5750600d54421015611e5e565b60115460ff811661201d57600d5490814211801561200f575b15611fcb576001907f4d61895c9fa0d080c0e00b846f4636055b4ea61ae134c57096b3335edbcd17ca60e060105494600b546040519160a08352601360a0840152722334b730b634bd34b7339031b0b6b830b4b3b760691b60c084015242602084015260408301528660608301526080820152a160ff19161760115580611f58575b507f170c266b6c51c5ee0e58a9ff23f733b295ff6c6b28f3c61a2ed3dc74a0902f2d6020601054600b541115604051908152a1565b611fc59060018060a01b03600a54167f17a789819fcedb3fd9d53e652a5050583cd555f529a4323010a3e73ae0d61d5a60a06040516060815260126060820152715472616e7366657272696e672066756e647360701b6080820152846020820152836040820152a1611d76565b38611f23565b606460405162461bcd60e51b815260206004820152602060248201527f43616d706169676e2063616e6e6f742062652066696e616c697a6564207965746044820152fd5b50601054600b541115611ea1565b60405162461bcd60e51b815260206004820152601e60248201527f43616d706169676e20697320616c72656164792066696e616c697a65642e00006044820152606490fd5b1561206957565b60405162461bcd60e51b815260206004820152602860248201527f4f6e6c79207468652063616d706169676e2063726561746f722063616e2063616044820152673636103a3434b99760c11b6064820152608490fd5b606460405162461bcd60e51b815260206004820152602060248201527f44697265637420455448207472616e7366657273206e6f7420616c6c6f7765646044820152fdfea26469706673582212205ef4e4195b23eccd2d9e4f8d3680e1754a9d8daef2ced32d0c25893d42a5a5d164736f6c63430008130033405787fa12a823e0f2b7631cc41b3ba8828b3321ca811111fa75cd3aa3bb5ace",
          "opcodes": "PUSH1 0x80 PUSH1 0x40 MSTORE CALLVALUE PUSH3 0x9FE JUMPI PUSH3 0x2BCE DUP1 CODESIZE SUB DUP1 PUSH3 0x1D DUP2 PUSH3 0xA39 JUMP JUMPDEST SWAP3 DUP4 CODECOPY DUP2 ADD SWAP1 PUSH2 0x160 DUP2 DUP4 SUB SLT PUSH3 0x9FE JUMPI PUSH3 0x3A DUP2 PUSH3 0xA5F JUMP JUMPDEST PUSH1 0x20 DUP3 ADD MLOAD SWAP1 SWAP2 SWAP1 PUSH1 0x1 PUSH1 0x1 PUSH1 0x40 SHL SUB DUP2 GT PUSH3 0x9FE JUMPI DUP2 ADD DUP4 PUSH1 0x1F DUP3 ADD SLT ISZERO PUSH3 0x9FE JUMPI DUP1 MLOAD SWAP1 PUSH1 0x1 PUSH1 0x1 PUSH1 0x40 SHL SUB DUP3 GT PUSH3 0x416 JUMPI PUSH3 0x86 PUSH1 0x1F DUP4 ADD PUSH1 0x1F NOT AND PUSH1 0x20 ADD PUSH3 0xA39 JUMP JUMPDEST SWAP5 DUP3 DUP7 MSTORE PUSH1 0x20 DUP4 DUP4 ADD ADD GT PUSH3 0x9FE JUMPI PUSH1 0x0 JUMPDEST DUP3 DUP2 LT PUSH3 0xA03 JUMPI POP POP PUSH1 0x20 PUSH1 0x0 SWAP2 DUP6 ADD ADD MSTORE PUSH1 0x40 DUP2 ADD MLOAD PUSH1 0x60 DUP3 ADD MLOAD SWAP1 PUSH1 0x80 DUP4 ADD MLOAD SWAP5 PUSH1 0xA0 DUP5 ADD MLOAD SWAP1 DUP2 ISZERO ISZERO DUP3 SUB PUSH3 0x9FE JUMPI PUSH3 0xDB PUSH1 0xC0 DUP7 ADD PUSH3 0xA5F JUMP JUMPDEST SWAP2 PUSH3 0xEA PUSH1 0xE0 DUP8 ADD PUSH3 0xA5F JUMP JUMPDEST SWAP1 PUSH2 0x100 DUP8 ADD MLOAD SWAP4 PUSH2 0x120 DUP9 ADD MLOAD SWAP8 PUSH1 0x1 DUP1 PUSH1 0x60 SHL SUB DUP10 AND DUP10 SUB PUSH3 0x9FE JUMPI PUSH2 0x140 PUSH3 0x118 SWAP2 ADD PUSH3 0xA5F JUMP JUMPDEST SWAP10 PUSH3 0x123 PUSH3 0xA19 JUMP JUMPDEST PUSH1 0xE DUP2 MSTORE PUSH14 0x43616D706169676E536861726573 PUSH1 0x90 SHL PUSH1 0x20 DUP3 ADD MSTORE PUSH3 0x148 PUSH3 0xA19 JUMP JUMPDEST PUSH1 0x3 DUP2 MSTORE PUSH3 0x86A69 PUSH1 0xEB SHL PUSH1 0x20 DUP3 ADD MSTORE DUP2 MLOAD SWAP1 SWAP2 PUSH1 0x1 PUSH1 0x1 PUSH1 0x40 SHL SUB DUP3 GT PUSH3 0x416 JUMPI PUSH1 0x2 SLOAD SWAP1 PUSH1 0x1 DUP3 DUP2 SHR SWAP3 AND DUP1 ISZERO PUSH3 0x9F3 JUMPI JUMPDEST PUSH1 0x20 DUP4 LT EQ PUSH3 0x5C4 JUMPI DUP2 PUSH1 0x1F DUP5 SWAP4 GT PUSH3 0x992 JUMPI JUMPDEST POP PUSH1 0x20 SWAP1 PUSH1 0x1F DUP4 GT PUSH1 0x1 EQ PUSH3 0x914 JUMPI PUSH1 0x0 SWAP3 PUSH3 0x908 JUMPI JUMPDEST POP POP DUP2 PUSH1 0x1 SHL SWAP2 PUSH1 0x0 NOT SWAP1 PUSH1 0x3 SHL SHR NOT AND OR PUSH1 0x2 SSTORE JUMPDEST DUP1 MLOAD SWAP1 PUSH1 0x1 PUSH1 0x1 PUSH1 0x40 SHL SUB DUP3 GT PUSH3 0x416 JUMPI PUSH1 0x3 SLOAD SWAP1 PUSH1 0x1 DUP3 DUP2 SHR SWAP3 AND DUP1 ISZERO PUSH3 0x8FD JUMPI JUMPDEST PUSH1 0x20 DUP4 LT EQ PUSH3 0x5C4 JUMPI DUP2 PUSH1 0x1F DUP5 SWAP4 GT PUSH3 0x889 JUMPI JUMPDEST POP PUSH1 0x20 SWAP1 PUSH1 0x1F DUP4 GT PUSH1 0x1 EQ PUSH3 0x7FA JUMPI PUSH1 0x0 SWAP3 PUSH3 0x7EE JUMPI JUMPDEST POP POP DUP2 PUSH1 0x1 SHL SWAP2 PUSH1 0x0 NOT SWAP1 PUSH1 0x3 SHL SHR NOT AND OR PUSH1 0x3 SSTORE JUMPDEST PUSH1 0x8 DUP1 SLOAD CALLER PUSH1 0x1 PUSH1 0x1 PUSH1 0xA0 SHL SUB NOT DUP3 AND DUP2 OR SWAP1 SWAP3 SSTORE PUSH1 0x40 MLOAD PUSH1 0x1 PUSH1 0x1 PUSH1 0xA0 SHL SUB SWAP13 SWAP3 SWAP1 SWAP2 DUP14 AND PUSH32 0x8BE0079C531659141344CD1FD0A4F28419497F9722A3DAAFE3B4186F6B6457E0 PUSH1 0x0 DUP1 LOG3 DUP12 DUP3 AND ISZERO PUSH3 0x7AC JUMPI POP DUP11 DUP6 AND ISZERO PUSH3 0x767 JUMPI DUP9 ISZERO PUSH3 0x714 JUMPI DUP8 ISZERO PUSH3 0x6BF JUMPI TIMESTAMP DUP3 GT ISZERO PUSH3 0x67A JUMPI PUSH1 0x64 DUP8 GT PUSH3 0x629 JUMPI DUP11 DUP13 AND ISZERO PUSH3 0x5E5 JUMPI DUP6 MLOAD PUSH1 0x1 PUSH1 0x1 PUSH1 0x40 SHL SUB DUP2 GT PUSH3 0x416 JUMPI PUSH1 0x9 SLOAD SWAP7 PUSH1 0x1 DUP9 DUP2 SHR SWAP9 AND DUP1 ISZERO PUSH3 0x5DA JUMPI JUMPDEST PUSH1 0x20 DUP10 LT EQ PUSH3 0x5C4 JUMPI DUP8 PUSH1 0x1F DUP15 SWAP10 GT PUSH3 0x562 JUMPI JUMPDEST POP PUSH1 0x20 SWAP1 PUSH1 0x1F DUP4 GT PUSH1 0x1 EQ PUSH3 0x4EC JUMPI DUP9 SWAP4 SWAP3 SWAP2 PUSH1 0x0 SWAP2 DUP4 PUSH3 0x4E0 JUMPI JUMPDEST POP POP DUP2 PUSH1 0x1 SHL SWAP2 PUSH1 0x0 NOT SWAP1 PUSH1 0x3 SHL SHR NOT AND OR PUSH1 0x9 SSTORE JUMPDEST AND PUSH1 0x1 DUP1 PUSH1 0xA0 SHL SUB NOT PUSH1 0xA SLOAD AND OR PUSH1 0xA SSTORE DUP7 PUSH1 0xB SSTORE DUP8 PUSH1 0xC SSTORE PUSH1 0xD SSTORE PUSH2 0xFF00 PUSH1 0x11 SLOAD SWAP2 PUSH1 0x0 DUP5 PUSH1 0x0 EQ PUSH3 0x4D8 JUMPI POP JUMPDEST PUSH3 0x10000 PUSH1 0x1 PUSH1 0xB0 SHL SUB SWAP1 PUSH1 0x10 SHL AND SWAP3 ISZERO ISZERO PUSH1 0x8 SHL AND SWAP1 PUSH2 0x100 PUSH1 0x1 PUSH1 0xB0 SHL SUB NOT AND OR OR PUSH1 0x11 SSTORE AND PUSH1 0x1 DUP1 PUSH1 0xA0 SHL SUB NOT PUSH1 0x12 SLOAD AND OR PUSH1 0x12 SSTORE PUSH1 0x13 SSTORE DUP4 DUP6 AND PUSH1 0x1 DUP1 PUSH1 0xA0 SHL SUB NOT PUSH1 0x14 SLOAD AND OR PUSH1 0x14 SSTORE DIV DUP1 PUSH1 0xE SSTORE ISZERO PUSH3 0x484 JUMPI PUSH2 0x2710 PUSH1 0x1 PUSH1 0x1 PUSH1 0x60 SHL SUB DUP3 AND GT PUSH3 0x42C JUMPI PUSH1 0x40 DUP1 MLOAD SWAP1 DUP2 ADD PUSH1 0x1 PUSH1 0x1 PUSH1 0x40 SHL SUB DUP2 GT DUP3 DUP3 LT OR PUSH3 0x416 JUMPI PUSH1 0x40 SWAP1 DUP2 MSTORE SWAP4 SWAP1 SWAP3 AND DUP1 DUP4 MSTORE PUSH1 0x1 PUSH1 0x1 PUSH1 0x60 SHL SUB DUP3 AND PUSH1 0x20 SWAP1 SWAP4 ADD SWAP3 SWAP1 SWAP3 MSTORE PUSH1 0xA0 SHL PUSH1 0x1 PUSH1 0x1 PUSH1 0xA0 SHL SUB NOT AND OR PUSH1 0x0 SSTORE MLOAD PUSH2 0x2139 SWAP1 DUP2 PUSH3 0xA75 DUP3 CODECOPY RETURN JUMPDEST PUSH4 0x4E487B71 PUSH1 0xE0 SHL PUSH1 0x0 MSTORE PUSH1 0x41 PUSH1 0x4 MSTORE PUSH1 0x24 PUSH1 0x0 REVERT JUMPDEST PUSH1 0x40 MLOAD PUSH3 0x461BCD PUSH1 0xE5 SHL DUP2 MSTORE PUSH1 0x20 PUSH1 0x4 DUP3 ADD MSTORE PUSH1 0x2A PUSH1 0x24 DUP3 ADD MSTORE PUSH32 0x455243323938313A20726F79616C7479206665652077696C6C20657863656564 PUSH1 0x44 DUP3 ADD MSTORE PUSH10 0x2073616C655072696365 PUSH1 0xB0 SHL PUSH1 0x64 DUP3 ADD MSTORE PUSH1 0x84 SWAP1 REVERT JUMPDEST PUSH1 0x40 MLOAD PUSH3 0x461BCD PUSH1 0xE5 SHL DUP2 MSTORE PUSH1 0x20 PUSH1 0x4 DUP3 ADD MSTORE PUSH1 0x26 PUSH1 0x24 DUP3 ADD MSTORE PUSH32 0x546F74616C20736861726573206D757374206265206772656174657220746861 PUSH1 0x44 DUP3 ADD MSTORE PUSH6 0x6E207A65726F PUSH1 0xD0 SHL PUSH1 0x64 DUP3 ADD MSTORE PUSH1 0x84 SWAP1 REVERT JUMPDEST SWAP1 POP PUSH3 0x352 JUMP JUMPDEST ADD MLOAD SWAP1 POP CODESIZE DUP1 PUSH3 0x30C JUMP JUMPDEST SWAP1 PUSH1 0x9 PUSH1 0x0 MSTORE PUSH1 0x20 PUSH1 0x0 KECCAK256 SWAP2 PUSH1 0x0 JUMPDEST PUSH1 0x1F NOT DUP6 AND DUP2 LT PUSH3 0x546 JUMPI POP SWAP2 DUP4 SWAP2 PUSH1 0x1 SWAP4 DUP12 SWAP7 SWAP6 PUSH1 0x1F NOT DUP2 AND LT PUSH3 0x52C JUMPI JUMPDEST POP POP POP DUP2 SHL ADD PUSH1 0x9 SSTORE PUSH3 0x322 JUMP JUMPDEST ADD MLOAD PUSH1 0x0 NOT PUSH1 0xF8 DUP5 PUSH1 0x3 SHL AND SHR NOT AND SWAP1 SSTORE CODESIZE DUP1 DUP1 PUSH3 0x51D JUMP JUMPDEST DUP2 DUP4 ADD MLOAD DUP5 SSTORE DUP16 SWAP11 POP PUSH1 0x1 SWAP1 SWAP4 ADD SWAP3 PUSH1 0x20 SWAP3 DUP4 ADD SWAP3 ADD PUSH3 0x4FB JUMP JUMPDEST SWAP1 SWAP2 SWAP3 SWAP4 SWAP5 SWAP6 SWAP7 SWAP8 POP PUSH1 0x9 PUSH1 0x0 MSTORE PUSH1 0x20 PUSH1 0x0 KECCAK256 PUSH1 0x1F DUP5 ADD PUSH1 0x5 SHR DUP2 ADD PUSH1 0x20 DUP6 LT PUSH3 0x5BC JUMPI JUMPDEST SWAP1 DUP15 SWAP10 SWAP9 SWAP8 SWAP7 SWAP6 SWAP5 SWAP4 SWAP3 SWAP2 JUMPDEST PUSH1 0x1F DUP4 ADD PUSH1 0x5 SHR DUP3 ADD DUP2 LT PUSH3 0x5AC JUMPI POP POP PUSH3 0x2EE JUMP JUMPDEST PUSH1 0x0 DUP2 SSTORE DUP16 SWAP11 POP PUSH1 0x1 ADD PUSH3 0x594 JUMP JUMPDEST POP DUP1 PUSH3 0x588 JUMP JUMPDEST PUSH4 0x4E487B71 PUSH1 0xE0 SHL PUSH1 0x0 MSTORE PUSH1 0x22 PUSH1 0x4 MSTORE PUSH1 0x24 PUSH1 0x0 REVERT JUMPDEST SWAP8 PUSH1 0x7F AND SWAP8 PUSH3 0x2D8 JUMP JUMPDEST PUSH1 0x64 PUSH1 0x40 MLOAD PUSH3 0x461BCD PUSH1 0xE5 SHL DUP2 MSTORE PUSH1 0x20 PUSH1 0x4 DUP3 ADD MSTORE PUSH1 0x20 PUSH1 0x24 DUP3 ADD MSTORE PUSH32 0x496E76616C696420726F79616C74792072656365697665722061646472657373 PUSH1 0x44 DUP3 ADD MSTORE REVERT JUMPDEST PUSH1 0x40 MLOAD PUSH3 0x461BCD PUSH1 0xE5 SHL DUP2 MSTORE PUSH1 0x20 PUSH1 0x4 DUP3 ADD MSTORE PUSH1 0x24 DUP1 DUP3 ADD MSTORE PUSH32 0x436F6D6D697373696F6E2070657263656E742063616E6E6F7420657863656564 PUSH1 0x44 DUP3 ADD MSTORE PUSH4 0x2031303 PUSH1 0xE4 SHL PUSH1 0x64 DUP3 ADD MSTORE PUSH1 0x84 SWAP1 REVERT JUMPDEST PUSH1 0x40 MLOAD PUSH3 0x461BCD PUSH1 0xE5 SHL DUP2 MSTORE PUSH1 0x20 PUSH1 0x4 DUP3 ADD MSTORE PUSH1 0x1E PUSH1 0x24 DUP3 ADD MSTORE PUSH32 0x456E642074696D65206D75737420626520696E20746865206675747572650000 PUSH1 0x44 DUP3 ADD MSTORE PUSH1 0x64 SWAP1 REVERT JUMPDEST PUSH1 0x40 MLOAD PUSH3 0x461BCD PUSH1 0xE5 SHL DUP2 MSTORE PUSH1 0x20 PUSH1 0x4 DUP3 ADD MSTORE PUSH1 0x27 PUSH1 0x24 DUP3 ADD MSTORE PUSH32 0x54617267657420616D6F756E74206D7573742062652067726561746572207468 PUSH1 0x44 DUP3 ADD MSTORE PUSH7 0x616E207A65726F PUSH1 0xC8 SHL PUSH1 0x64 DUP3 ADD MSTORE PUSH1 0x84 SWAP1 REVERT JUMPDEST PUSH1 0x40 MLOAD PUSH3 0x461BCD PUSH1 0xE5 SHL DUP2 MSTORE PUSH1 0x20 PUSH1 0x4 DUP3 ADD MSTORE PUSH1 0x25 PUSH1 0x24 DUP3 ADD MSTORE PUSH32 0x5368617265207072696365206D7573742062652067726561746572207468616E PUSH1 0x44 DUP3 ADD MSTORE PUSH5 0x207A65726F PUSH1 0xD8 SHL PUSH1 0x64 DUP3 ADD MSTORE PUSH1 0x84 SWAP1 REVERT JUMPDEST PUSH1 0x40 MLOAD PUSH3 0x461BCD PUSH1 0xE5 SHL DUP2 MSTORE PUSH1 0x20 PUSH1 0x4 DUP3 ADD MSTORE PUSH1 0x18 PUSH1 0x24 DUP3 ADD MSTORE PUSH32 0x496E76616C696420747265617375727920616464726573730000000000000000 PUSH1 0x44 DUP3 ADD MSTORE PUSH1 0x64 SWAP1 REVERT JUMPDEST PUSH3 0x461BCD PUSH1 0xE5 SHL DUP2 MSTORE PUSH1 0x20 PUSH1 0x4 DUP3 ADD MSTORE PUSH1 0x17 PUSH1 0x24 DUP3 ADD MSTORE PUSH32 0x496E76616C696420737461727475702061646472657373000000000000000000 PUSH1 0x44 DUP3 ADD MSTORE PUSH1 0x64 SWAP1 REVERT JUMPDEST ADD MLOAD SWAP1 POP CODESIZE DUP1 PUSH3 0x217 JUMP JUMPDEST PUSH1 0x3 PUSH1 0x0 SWAP1 DUP2 MSTORE SWAP4 POP PUSH32 0xC2575A0E9E593C00F959F8C92F12DB2869C3395A3B0502D05E2516446F71F85B SWAP2 SWAP1 JUMPDEST PUSH1 0x1F NOT DUP5 AND DUP6 LT PUSH3 0x86D JUMPI PUSH1 0x1 SWAP5 POP DUP4 PUSH1 0x1F NOT DUP2 AND LT PUSH3 0x853 JUMPI JUMPDEST POP POP POP DUP2 SHL ADD PUSH1 0x3 SSTORE PUSH3 0x22D JUMP JUMPDEST ADD MLOAD PUSH1 0x0 NOT PUSH1 0xF8 DUP5 PUSH1 0x3 SHL AND SHR NOT AND SWAP1 SSTORE CODESIZE DUP1 DUP1 PUSH3 0x844 JUMP JUMPDEST DUP2 DUP2 ADD MLOAD DUP4 SSTORE PUSH1 0x20 SWAP5 DUP6 ADD SWAP5 PUSH1 0x1 SWAP1 SWAP4 ADD SWAP3 SWAP1 SWAP2 ADD SWAP1 PUSH3 0x827 JUMP JUMPDEST PUSH1 0x3 PUSH1 0x0 MSTORE SWAP1 SWAP2 POP PUSH32 0xC2575A0E9E593C00F959F8C92F12DB2869C3395A3B0502D05E2516446F71F85B PUSH1 0x5 PUSH1 0x1F DUP6 ADD DUP2 SHR DUP3 ADD PUSH1 0x20 DUP7 LT PUSH3 0x8F5 JUMPI JUMPDEST SWAP1 DUP6 SWAP5 SWAP4 SWAP3 SWAP2 JUMPDEST PUSH1 0x1F DUP5 ADD DUP3 SHR DUP4 ADD DUP2 LT PUSH3 0x8E5 JUMPI POP POP POP PUSH3 0x1FE JUMP JUMPDEST PUSH1 0x0 DUP2 SSTORE DUP7 SWAP6 POP PUSH1 0x1 ADD PUSH3 0x8CD JUMP JUMPDEST POP DUP2 PUSH3 0x8C6 JUMP JUMPDEST SWAP2 PUSH1 0x7F AND SWAP2 PUSH3 0x1E8 JUMP JUMPDEST ADD MLOAD SWAP1 POP CODESIZE DUP1 PUSH3 0x1AD JUMP JUMPDEST PUSH1 0x2 PUSH1 0x0 SWAP1 DUP2 MSTORE SWAP4 POP PUSH1 0x0 DUP1 MLOAD PUSH1 0x20 PUSH3 0x2BAE DUP4 CODECOPY DUP2 MLOAD SWAP2 MSTORE SWAP2 SWAP1 JUMPDEST PUSH1 0x1F NOT DUP5 AND DUP6 LT PUSH3 0x976 JUMPI PUSH1 0x1 SWAP5 POP DUP4 PUSH1 0x1F NOT DUP2 AND LT PUSH3 0x95C JUMPI JUMPDEST POP POP POP DUP2 SHL ADD PUSH1 0x2 SSTORE PUSH3 0x1C3 JUMP JUMPDEST ADD MLOAD PUSH1 0x0 NOT PUSH1 0xF8 DUP5 PUSH1 0x3 SHL AND SHR NOT AND SWAP1 SSTORE CODESIZE DUP1 DUP1 PUSH3 0x94D JUMP JUMPDEST DUP2 DUP2 ADD MLOAD DUP4 SSTORE PUSH1 0x20 SWAP5 DUP6 ADD SWAP5 PUSH1 0x1 SWAP1 SWAP4 ADD SWAP3 SWAP1 SWAP2 ADD SWAP1 PUSH3 0x930 JUMP JUMPDEST PUSH1 0x2 PUSH1 0x0 MSTORE SWAP1 SWAP2 POP PUSH1 0x0 DUP1 MLOAD PUSH1 0x20 PUSH3 0x2BAE DUP4 CODECOPY DUP2 MLOAD SWAP2 MSTORE PUSH1 0x1F DUP5 ADD PUSH1 0x5 SHR DUP2 ADD PUSH1 0x20 DUP6 LT PUSH3 0x9EB JUMPI JUMPDEST SWAP1 DUP5 SWAP4 SWAP3 SWAP2 JUMPDEST PUSH1 0x1F DUP4 ADD PUSH1 0x5 SHR DUP3 ADD DUP2 LT PUSH3 0x9DB JUMPI POP POP PUSH3 0x194 JUMP JUMPDEST PUSH1 0x0 DUP2 SSTORE DUP6 SWAP5 POP PUSH1 0x1 ADD PUSH3 0x9C3 JUMP JUMPDEST POP DUP1 PUSH3 0x9BD JUMP JUMPDEST SWAP2 PUSH1 0x7F AND SWAP2 PUSH3 0x17E JUMP JUMPDEST PUSH1 0x0 DUP1 REVERT JUMPDEST DUP1 PUSH1 0x20 DUP1 SWAP3 DUP5 ADD ADD MLOAD DUP3 DUP3 DUP10 ADD ADD MSTORE ADD PUSH3 0x99 JUMP JUMPDEST PUSH1 0x40 DUP1 MLOAD SWAP2 SWAP1 DUP3 ADD PUSH1 0x1 PUSH1 0x1 PUSH1 0x40 SHL SUB DUP2 GT DUP4 DUP3 LT OR PUSH3 0x416 JUMPI PUSH1 0x40 MSTORE JUMP JUMPDEST PUSH1 0x40 MLOAD SWAP2 SWAP1 PUSH1 0x1F ADD PUSH1 0x1F NOT AND DUP3 ADD PUSH1 0x1 PUSH1 0x1 PUSH1 0x40 SHL SUB DUP2 GT DUP4 DUP3 LT OR PUSH3 0x416 JUMPI PUSH1 0x40 MSTORE JUMP JUMPDEST MLOAD SWAP1 PUSH1 0x1 PUSH1 0x1 PUSH1 0xA0 SHL SUB DUP3 AND DUP3 SUB PUSH3 0x9FE JUMPI JUMP INVALID PUSH1 0x80 PUSH1 0x40 DUP2 DUP2 MSTORE PUSH1 0x4 DUP1 CALLDATASIZE LT ISZERO PUSH2 0x1E JUMPI JUMPDEST POP POP POP CALLDATASIZE PUSH2 0x20BF JUMPI PUSH2 0x20BF JUMP JUMPDEST PUSH1 0x0 SWAP3 DUP4 CALLDATALOAD PUSH1 0xE0 SHR SWAP1 DUP2 PUSH4 0x1FFC9A7 EQ PUSH2 0x1593 JUMPI POP DUP1 PUSH4 0x2FA7C47 EQ PUSH2 0x144D JUMPI DUP1 PUSH4 0x6FDDE03 EQ PUSH2 0x1380 JUMPI DUP1 PUSH4 0x724FDA9 EQ PUSH2 0x12B3 JUMPI DUP1 PUSH4 0x81812FC EQ PUSH2 0x1293 JUMPI DUP1 PUSH4 0x95EA7B3 EQ PUSH2 0x1123 JUMPI DUP1 PUSH4 0x1810D859 EQ PUSH2 0x10EB JUMPI DUP1 PUSH4 0x192FC516 EQ PUSH2 0x10CC JUMPI DUP1 PUSH4 0x23B872DD EQ PUSH2 0x10A2 JUMPI DUP1 PUSH4 0x2A55205A EQ PUSH2 0x1004 JUMPI DUP1 PUSH4 0x3197CBB6 EQ PUSH2 0xFE5 JUMPI DUP1 PUSH4 0x3A98EF39 EQ PUSH2 0xFC6 JUMPI DUP1 PUSH4 0x3BFB6E31 EQ PUSH2 0xF99 JUMPI DUP1 PUSH4 0x42842E0E EQ PUSH2 0xF70 JUMPI DUP1 PUSH4 0x61D027B3 EQ PUSH2 0xF47 JUMPI DUP1 PUSH4 0x6352211E EQ PUSH2 0xF16 JUMPI DUP1 PUSH4 0x6681B9FD EQ PUSH2 0xEF7 JUMPI DUP1 PUSH4 0x70A08231 EQ PUSH2 0xE61 JUMPI DUP1 PUSH4 0x715018A6 EQ PUSH2 0xE04 JUMPI DUP1 PUSH4 0x727ABBB0 EQ PUSH2 0xB15 JUMPI DUP1 PUSH4 0x77D3550B EQ PUSH2 0xAF6 JUMPI DUP1 PUSH4 0x7F51BB1F EQ PUSH2 0xA5F JUMPI DUP1 PUSH4 0x87269729 EQ PUSH2 0xA40 JUMPI DUP1 PUSH4 0x8DA5CB5B EQ PUSH2 0xA17 JUMPI DUP1 PUSH4 0x953B8FB8 EQ PUSH2 0x9F8 JUMPI DUP1 PUSH4 0x95D89B41 EQ PUSH2 0x8E1 JUMPI DUP1 PUSH4 0x9DEF2D89 EQ PUSH2 0x8BA JUMPI DUP1 PUSH4 0x9FBC8713 EQ PUSH2 0x891 JUMPI DUP1 PUSH4 0xA1211BC0 EQ PUSH2 0x875 JUMPI DUP1 PUSH4 0xA22CB465 EQ PUSH2 0x7A6 JUMPI DUP1 PUSH4 0xB3892C64 EQ PUSH2 0x77D JUMPI DUP1 PUSH4 0xB3F05B97 EQ PUSH2 0x759 JUMPI DUP1 PUSH4 0xB88D4FDE EQ PUSH2 0x6D3 JUMPI DUP1 PUSH4 0xC87B56DD EQ PUSH2 0x663 JUMPI DUP1 PUSH4 0xD1A93D18 EQ PUSH2 0x359 JUMPI DUP1 PUSH4 0xDB2E21BC EQ PUSH2 0x2E4 JUMPI DUP1 PUSH4 0xE985E9C5 EQ PUSH2 0x292 JUMPI PUSH4 0xF2FDE38B SUB PUSH2 0x11 JUMPI CALLVALUE PUSH2 0x28E JUMPI PUSH1 0x20 CALLDATASIZE PUSH1 0x3 NOT ADD SLT PUSH2 0x28E JUMPI PUSH2 0x1E2 PUSH2 0x1619 JUMP JUMPDEST SWAP1 PUSH2 0x1EB PUSH2 0x174B JUMP JUMPDEST PUSH1 0x1 PUSH1 0x1 PUSH1 0xA0 SHL SUB SWAP2 DUP3 AND SWAP3 DUP4 ISZERO PUSH2 0x23C JUMPI POP POP PUSH1 0x8 SLOAD DUP3 PUSH1 0x1 PUSH1 0x1 PUSH1 0x60 SHL SUB PUSH1 0xA0 SHL DUP3 AND OR PUSH1 0x8 SSTORE AND PUSH32 0x8BE0079C531659141344CD1FD0A4F28419497F9722A3DAAFE3B4186F6B6457E0 DUP4 DUP1 LOG3 DUP1 RETURN JUMPDEST SWAP1 PUSH1 0x20 PUSH1 0x84 SWAP3 MLOAD SWAP2 PUSH3 0x461BCD PUSH1 0xE5 SHL DUP4 MSTORE DUP3 ADD MSTORE PUSH1 0x26 PUSH1 0x24 DUP3 ADD MSTORE PUSH32 0x4F776E61626C653A206E6577206F776E657220697320746865207A65726F2061 PUSH1 0x44 DUP3 ADD MSTORE PUSH6 0x646472657373 PUSH1 0xD0 SHL PUSH1 0x64 DUP3 ADD MSTORE REVERT JUMPDEST DUP3 DUP1 REVERT JUMPDEST POP POP CALLVALUE PUSH2 0x2E0 JUMPI DUP1 PUSH1 0x3 NOT CALLDATASIZE ADD SLT PUSH2 0x2E0 JUMPI PUSH1 0xFF DUP2 PUSH1 0x20 SWAP4 PUSH2 0x2B2 PUSH2 0x1619 JUMP JUMPDEST PUSH2 0x2BA PUSH2 0x1634 JUMP JUMPDEST PUSH1 0x1 PUSH1 0x1 PUSH1 0xA0 SHL SUB SWAP2 DUP3 AND DUP4 MSTORE PUSH1 0x7 DUP8 MSTORE DUP4 DUP4 KECCAK256 SWAP2 AND DUP3 MSTORE DUP6 MSTORE KECCAK256 SLOAD SWAP2 MLOAD SWAP2 AND ISZERO ISZERO DUP2 MSTORE RETURN JUMPDEST POP DUP1 REVERT JUMPDEST POP CALLVALUE PUSH2 0x28E JUMPI DUP3 PUSH1 0x3 NOT CALLDATASIZE ADD SLT PUSH2 0x28E JUMPI PUSH2 0x2FD PUSH2 0x174B JUMP JUMPDEST SELFBALANCE SWAP2 DUP3 ISZERO PUSH2 0x321 JUMPI PUSH1 0x8 SLOAD DUP5 SWAP1 PUSH2 0x31E SWAP1 DUP6 SWAP1 PUSH1 0x1 PUSH1 0x1 PUSH1 0xA0 SHL SUB AND PUSH2 0x1D76 JUMP JUMPDEST DUP1 RETURN JUMPDEST SWAP1 PUSH1 0x20 PUSH1 0x64 SWAP3 MLOAD SWAP2 PUSH3 0x461BCD PUSH1 0xE5 SHL DUP4 MSTORE DUP3 ADD MSTORE PUSH1 0x12 PUSH1 0x24 DUP3 ADD MSTORE PUSH18 0x4E6F2045544820746F207769746864726177 PUSH1 0x70 SHL PUSH1 0x44 DUP3 ADD MSTORE REVERT JUMPDEST POP SWAP2 SWAP1 PUSH1 0x20 DUP1 PUSH1 0x3 NOT CALLDATASIZE ADD SLT PUSH2 0x28E JUMPI DUP4 CALLDATALOAD SWAP2 PUSH2 0x37A PUSH1 0xD SLOAD TIMESTAMP GT ISZERO PUSH2 0x1C7A JUMP JUMPDEST PUSH1 0x11 PUSH2 0x38A PUSH1 0xFF DUP3 SLOAD AND ISZERO PUSH2 0x1CBC JUMP JUMPDEST PUSH1 0xF PUSH2 0x397 DUP6 DUP3 SLOAD PUSH2 0x1D01 JUMP JUMPDEST PUSH1 0xE SLOAD LT PUSH2 0x620 JUMPI PUSH2 0x3AB PUSH1 0xC SLOAD DUP7 PUSH2 0x1C51 JUMP JUMPDEST CALLVALUE SUB PUSH2 0x5DD JUMPI PUSH1 0xA SLOAD PUSH1 0x1 PUSH1 0x1 PUSH1 0xA0 SHL SUB SWAP8 SWAP1 DUP9 AND CALLER EQ PUSH2 0x584 JUMPI PUSH2 0x3FC PUSH1 0x64 SWAP4 SWAP3 SWAP4 SWAP9 PUSH2 0x3F4 DUP11 PUSH2 0x3DF PUSH1 0x13 SLOAD CALLVALUE PUSH2 0x1C51 JUMP JUMPDEST DIV PUSH2 0x3EA DUP2 CALLVALUE PUSH2 0x1D0E JUMP JUMPDEST SWAP3 PUSH1 0x12 SLOAD AND PUSH2 0x1D76 JUMP JUMPDEST PUSH1 0x10 SLOAD PUSH2 0x1D01 JUMP JUMPDEST PUSH1 0x10 SSTORE PUSH2 0x40A DUP7 DUP5 SLOAD PUSH2 0x1D01 JUMP JUMPDEST DUP4 SSTORE CALLER DUP8 MSTORE PUSH1 0x15 DUP6 MSTORE DUP4 DUP8 KECCAK256 PUSH2 0x421 DUP8 DUP3 SLOAD PUSH2 0x1D01 JUMP JUMPDEST SWAP1 SSTORE CALLER ISZERO SWAP2 DUP8 JUMPDEST DUP8 DUP2 LT PUSH2 0x463 JUMPI DUP9 DUP9 PUSH32 0x303026F7FC6B5FE40CF1B1CA575A6F395B34145669A68563671A5FC8334F341D DUP10 DUP10 MLOAD SWAP3 DUP4 MSTORE CALLER SWAP3 LOG2 PUSH2 0x31E PUSH2 0x1E51 JUMP JUMPDEST PUSH2 0x477 DUP2 PUSH2 0x472 DUP11 DUP9 SLOAD PUSH2 0x1D0E JUMP JUMPDEST PUSH2 0x1D01 JUMP JUMPDEST PUSH1 0x1 DUP1 DUP3 ADD DUP1 SWAP3 GT PUSH2 0x572 JUMPI DUP6 PUSH2 0x532 JUMPI PUSH1 0x0 DUP3 DUP2 MSTORE PUSH1 0x4 PUSH1 0x20 MSTORE PUSH1 0x40 SWAP1 KECCAK256 SLOAD PUSH2 0x52D SWAP4 SWAP3 SWAP2 SWAP1 PUSH2 0x4B4 SWAP1 PUSH1 0x1 PUSH1 0x1 PUSH1 0xA0 SHL SUB AND ISZERO ISZERO JUMPDEST ISZERO PUSH2 0x1D2A JUMP JUMPDEST PUSH1 0x0 DUP3 DUP2 MSTORE PUSH1 0x4 PUSH1 0x20 MSTORE PUSH1 0x40 SWAP1 KECCAK256 SLOAD PUSH2 0x4D7 SWAP1 PUSH1 0x1 PUSH1 0x1 PUSH1 0xA0 SHL SUB AND ISZERO ISZERO PUSH2 0x4AE JUMP JUMPDEST CALLER DUP13 MSTORE PUSH1 0x5 DUP11 MSTORE DUP9 DUP13 KECCAK256 SWAP1 DUP2 SLOAD ADD SWAP1 SSTORE DUP1 DUP12 MSTORE DUP5 DUP10 MSTORE DUP8 DUP12 KECCAK256 CALLER PUSH1 0x1 PUSH1 0x1 PUSH1 0x60 SHL SUB PUSH1 0xA0 SHL DUP3 SLOAD AND OR SWAP1 SSTORE CALLER DUP12 PUSH32 0xDDF252AD1BE2C89B69C2B068FC378DAA952BA7F163C4A11628F55A4DF523B3EF DUP2 DUP1 LOG4 PUSH2 0x1D1B JUMP JUMPDEST PUSH2 0x428 JUMP JUMPDEST DUP12 DUP6 DUP11 DUP1 DUP12 MLOAD SWAP3 PUSH3 0x461BCD PUSH1 0xE5 SHL DUP5 MSTORE DUP4 ADD MSTORE PUSH1 0x24 DUP3 ADD MSTORE PUSH32 0x4552433732313A206D696E7420746F20746865207A65726F2061646472657373 PUSH1 0x44 DUP3 ADD MSTORE REVERT JUMPDEST PUSH4 0x4E487B71 PUSH1 0xE0 SHL DUP12 MSTORE DUP4 DUP6 MSTORE PUSH1 0x24 DUP12 REVERT JUMPDEST DUP4 MLOAD PUSH3 0x461BCD PUSH1 0xE5 SHL DUP2 MSTORE SWAP1 DUP2 ADD DUP6 SWAP1 MSTORE PUSH1 0x2D PUSH1 0x24 DUP3 ADD MSTORE PUSH32 0x43616D706169676E2063726561746F722063616E6E6F74206275792074686569 PUSH1 0x44 DUP3 ADD MSTORE PUSH13 0x391037BBB71039B430B932B997 PUSH1 0x99 SHL PUSH1 0x64 DUP3 ADD MSTORE PUSH1 0x84 SWAP1 REVERT JUMPDEST DUP3 MLOAD PUSH3 0x461BCD PUSH1 0xE5 SHL DUP2 MSTORE DUP1 DUP9 ADD DUP6 SWAP1 MSTORE PUSH1 0x1A PUSH1 0x24 DUP3 ADD MSTORE PUSH32 0x496E636F72726563742045544820616D6F756E742073656E742E000000000000 PUSH1 0x44 DUP3 ADD MSTORE PUSH1 0x64 SWAP1 REVERT JUMPDEST DUP3 MLOAD PUSH3 0x461BCD PUSH1 0xE5 SHL DUP2 MSTORE DUP1 DUP9 ADD DUP6 SWAP1 MSTORE PUSH1 0x1C PUSH1 0x24 DUP3 ADD MSTORE PUSH32 0x4E6F7420656E6F7567682073686172657320617661696C61626C652E00000000 PUSH1 0x44 DUP3 ADD MSTORE PUSH1 0x64 SWAP1 REVERT JUMPDEST POP SWAP2 SWAP1 CALLVALUE PUSH2 0x2E0 JUMPI PUSH1 0x20 CALLDATASIZE PUSH1 0x3 NOT ADD SLT PUSH2 0x2E0 JUMPI PUSH2 0x6A2 PUSH2 0x69D PUSH2 0x6CF SWAP5 CALLDATALOAD PUSH1 0x0 MSTORE PUSH1 0x4 PUSH1 0x20 MSTORE PUSH1 0x1 DUP1 PUSH1 0xA0 SHL SUB PUSH1 0x40 PUSH1 0x0 KECCAK256 SLOAD AND ISZERO ISZERO SWAP1 JUMP JUMPDEST PUSH2 0x17A3 JUMP JUMPDEST DUP2 DUP2 MLOAD PUSH2 0x6AE DUP2 PUSH2 0x16BC JUMP JUMPDEST MSTORE DUP1 MLOAD SWAP2 PUSH2 0x6BB DUP4 PUSH2 0x16BC JUMP JUMPDEST DUP3 MSTORE MLOAD SWAP2 DUP3 SWAP2 PUSH1 0x20 DUP4 MSTORE PUSH1 0x20 DUP4 ADD SWAP1 PUSH2 0x164A JUMP JUMPDEST SUB SWAP1 RETURN JUMPDEST POP SWAP1 CALLVALUE PUSH2 0x28E JUMPI PUSH1 0x80 CALLDATASIZE PUSH1 0x3 NOT ADD SLT PUSH2 0x28E JUMPI PUSH2 0x6EE PUSH2 0x1619 JUMP JUMPDEST PUSH2 0x6F6 PUSH2 0x1634 JUMP JUMPDEST DUP5 PUSH1 0x64 CALLDATALOAD SWAP5 PUSH8 0xFFFFFFFFFFFFFFFF DUP7 GT PUSH2 0x2E0 JUMPI CALLDATASIZE PUSH1 0x23 DUP8 ADD SLT ISZERO PUSH2 0x2E0 JUMPI DUP6 ADD CALLDATALOAD SWAP5 PUSH2 0x72E PUSH2 0x725 DUP8 PUSH2 0x172F JUMP JUMPDEST SWAP6 MLOAD SWAP6 DUP7 PUSH2 0x16D8 JUMP JUMPDEST DUP6 DUP6 MSTORE CALLDATASIZE PUSH1 0x24 DUP8 DUP4 ADD ADD GT PUSH2 0x2E0 JUMPI DUP6 PUSH2 0x31E SWAP7 PUSH1 0x24 PUSH1 0x20 SWAP4 ADD DUP4 DUP9 ADD CALLDATACOPY DUP6 ADD ADD MSTORE PUSH1 0x44 CALLDATALOAD SWAP2 PUSH2 0x18B5 JUMP JUMPDEST POP POP CALLVALUE PUSH2 0x2E0 JUMPI DUP2 PUSH1 0x3 NOT CALLDATASIZE ADD SLT PUSH2 0x2E0 JUMPI PUSH1 0x20 SWAP1 PUSH1 0xFF PUSH1 0x11 SLOAD AND SWAP1 MLOAD SWAP1 ISZERO ISZERO DUP2 MSTORE RETURN JUMPDEST POP POP CALLVALUE PUSH2 0x2E0 JUMPI DUP2 PUSH1 0x3 NOT CALLDATASIZE ADD SLT PUSH2 0x2E0 JUMPI PUSH1 0xA SLOAD SWAP1 MLOAD PUSH1 0x1 PUSH1 0x1 PUSH1 0xA0 SHL SUB SWAP1 SWAP2 AND DUP2 MSTORE PUSH1 0x20 SWAP1 RETURN JUMPDEST POP SWAP1 CALLVALUE PUSH2 0x28E JUMPI DUP1 PUSH1 0x3 NOT CALLDATASIZE ADD SLT PUSH2 0x28E JUMPI PUSH2 0x7C0 PUSH2 0x1619 JUMP JUMPDEST SWAP1 PUSH1 0x24 CALLDATALOAD SWAP2 DUP3 ISZERO ISZERO DUP1 SWAP4 SUB PUSH2 0x871 JUMPI PUSH1 0x1 PUSH1 0x1 PUSH1 0xA0 SHL SUB AND SWAP3 CALLER DUP5 EQ PUSH2 0x82F JUMPI POP CALLER DUP5 MSTORE PUSH1 0x7 PUSH1 0x20 MSTORE DUP1 DUP5 KECCAK256 DUP4 DUP6 MSTORE PUSH1 0x20 MSTORE DUP1 DUP5 KECCAK256 PUSH1 0xFF NOT DUP2 SLOAD AND PUSH1 0xFF DUP5 AND OR SWAP1 SSTORE MLOAD SWAP1 DUP2 MSTORE PUSH32 0x17307EAB39AB6107E8899845AD3D59BD9653F200F220920489CA2B5937696C31 PUSH1 0x20 CALLER SWAP3 LOG3 DUP1 RETURN JUMPDEST PUSH1 0x20 PUSH1 0x64 SWAP3 MLOAD SWAP2 PUSH3 0x461BCD PUSH1 0xE5 SHL DUP4 MSTORE DUP3 ADD MSTORE PUSH1 0x19 PUSH1 0x24 DUP3 ADD MSTORE PUSH32 0x4552433732313A20617070726F766520746F2063616C6C657200000000000000 PUSH1 0x44 DUP3 ADD MSTORE REVERT JUMPDEST DUP5 DUP1 REVERT JUMPDEST DUP4 CALLVALUE PUSH2 0x88E JUMPI DUP1 PUSH1 0x3 NOT CALLDATASIZE ADD SLT PUSH2 0x88E JUMPI PUSH2 0x31E PUSH2 0x1E88 JUMP JUMPDEST DUP1 REVERT JUMPDEST POP POP CALLVALUE PUSH2 0x2E0 JUMPI DUP2 PUSH1 0x3 NOT CALLDATASIZE ADD SLT PUSH2 0x2E0 JUMPI PUSH1 0x14 SLOAD SWAP1 MLOAD PUSH1 0x1 PUSH1 0x1 PUSH1 0xA0 SHL SUB SWAP1 SWAP2 AND DUP2 MSTORE PUSH1 0x20 SWAP1 RETURN JUMPDEST POP POP CALLVALUE PUSH2 0x2E0 JUMPI DUP2 PUSH1 0x3 NOT CALLDATASIZE ADD SLT PUSH2 0x2E0 JUMPI PUSH1 0x20 SWAP1 PUSH1 0xFF PUSH1 0x11 SLOAD PUSH1 0x8 SHR AND SWAP1 MLOAD SWAP1 ISZERO ISZERO DUP2 MSTORE RETURN JUMPDEST POP SWAP2 CALLVALUE PUSH2 0x88E JUMPI DUP1 PUSH1 0x3 NOT CALLDATASIZE ADD SLT PUSH2 0x88E JUMPI DUP2 MLOAD SWAP2 DUP2 PUSH1 0x3 SLOAD SWAP3 PUSH1 0x1 DUP5 DUP2 SHR SWAP2 DUP2 DUP7 AND SWAP6 DUP7 ISZERO PUSH2 0x9EE JUMPI JUMPDEST PUSH1 0x20 SWAP7 DUP8 DUP6 LT DUP2 EQ PUSH2 0x9DB JUMPI DUP9 SWAP10 POP SWAP7 DUP9 SWAP7 SWAP8 DUP6 DUP3 SWAP11 MSTORE SWAP2 DUP3 PUSH1 0x0 EQ PUSH2 0x9B4 JUMPI POP POP PUSH1 0x1 EQ PUSH2 0x958 JUMPI JUMPDEST POP POP POP PUSH2 0x6CF SWAP3 SWAP2 PUSH2 0x949 SWAP2 SUB DUP6 PUSH2 0x16D8 JUMP JUMPDEST MLOAD SWAP3 DUP3 DUP5 SWAP4 DUP5 MSTORE DUP4 ADD SWAP1 PUSH2 0x164A JUMP JUMPDEST SWAP2 SWAP1 DUP7 SWAP4 POP PUSH1 0x3 DUP4 MSTORE PUSH32 0xC2575A0E9E593C00F959F8C92F12DB2869C3395A3B0502D05E2516446F71F85B JUMPDEST DUP3 DUP5 LT PUSH2 0x99C JUMPI POP POP POP DUP3 ADD ADD DUP2 PUSH2 0x949 PUSH2 0x6CF PUSH2 0x936 JUMP JUMPDEST DUP1 SLOAD DUP5 DUP11 ADD DUP7 ADD MSTORE DUP9 SWAP6 POP DUP8 SWAP5 SWAP1 SWAP4 ADD SWAP3 DUP2 ADD PUSH2 0x983 JUMP JUMPDEST PUSH1 0xFF NOT AND DUP8 DUP3 ADD MSTORE SWAP4 ISZERO ISZERO PUSH1 0x5 SHL DUP7 ADD SWAP1 SWAP4 ADD SWAP4 POP DUP5 SWAP3 POP PUSH2 0x949 SWAP2 POP PUSH2 0x6CF SWAP1 POP PUSH2 0x936 JUMP JUMPDEST PUSH4 0x4E487B71 PUSH1 0xE0 SHL DUP4 MSTORE PUSH1 0x22 DUP11 MSTORE PUSH1 0x24 DUP4 REVERT JUMPDEST SWAP3 PUSH1 0x7F AND SWAP3 PUSH2 0x90C JUMP JUMPDEST POP POP CALLVALUE PUSH2 0x2E0 JUMPI DUP2 PUSH1 0x3 NOT CALLDATASIZE ADD SLT PUSH2 0x2E0 JUMPI PUSH1 0x20 SWAP1 PUSH1 0xB SLOAD SWAP1 MLOAD SWAP1 DUP2 MSTORE RETURN JUMPDEST POP POP CALLVALUE PUSH2 0x2E0 JUMPI DUP2 PUSH1 0x3 NOT CALLDATASIZE ADD SLT PUSH2 0x2E0 JUMPI PUSH1 0x8 SLOAD SWAP1 MLOAD PUSH1 0x1 PUSH1 0x1 PUSH1 0xA0 SHL SUB SWAP1 SWAP2 AND DUP2 MSTORE PUSH1 0x20 SWAP1 RETURN JUMPDEST POP POP CALLVALUE PUSH2 0x2E0 JUMPI DUP2 PUSH1 0x3 NOT CALLDATASIZE ADD SLT PUSH2 0x2E0 JUMPI PUSH1 0x20 SWAP1 PUSH1 0xC SLOAD SWAP1 MLOAD SWAP1 DUP2 MSTORE RETURN JUMPDEST POP CALLVALUE PUSH2 0x28E JUMPI PUSH1 0x20 CALLDATASIZE PUSH1 0x3 NOT ADD SLT PUSH2 0x28E JUMPI PUSH2 0xA79 PUSH2 0x1619 JUMP JUMPDEST PUSH1 0xA SLOAD PUSH1 0x1 PUSH1 0x1 PUSH1 0xA0 SHL SUB SWAP2 SWAP1 PUSH2 0xA93 SWAP1 DUP4 AND CALLER EQ PUSH2 0x2062 JUMP JUMPDEST AND SWAP2 DUP3 ISZERO PUSH2 0xAB3 JUMPI POP POP PUSH1 0x1 PUSH1 0x1 PUSH1 0x60 SHL SUB PUSH1 0xA0 SHL PUSH1 0x12 SLOAD AND OR PUSH1 0x12 SSTORE DUP1 RETURN JUMPDEST SWAP1 PUSH1 0x20 PUSH1 0x64 SWAP3 MLOAD SWAP2 PUSH3 0x461BCD PUSH1 0xE5 SHL DUP4 MSTORE DUP3 ADD MSTORE PUSH1 0x18 PUSH1 0x24 DUP3 ADD MSTORE PUSH32 0x496E76616C696420747265617375727920616464726573730000000000000000 PUSH1 0x44 DUP3 ADD MSTORE REVERT JUMPDEST POP POP CALLVALUE PUSH2 0x2E0 JUMPI DUP2 PUSH1 0x3 NOT CALLDATASIZE ADD SLT PUSH2 0x2E0 JUMPI PUSH1 0x20 SWAP1 PUSH1 0x13 SLOAD SWAP1 MLOAD SWAP1 DUP2 MSTORE RETURN JUMPDEST POP SWAP2 SWAP1 CALLVALUE PUSH2 0x2E0 JUMPI DUP1 PUSH1 0x3 NOT CALLDATASIZE ADD SLT PUSH2 0x2E0 JUMPI DUP3 CALLDATALOAD SWAP1 PUSH1 0x24 DUP1 CALLDATALOAD SWAP1 PUSH8 0xFFFFFFFFFFFFFFFF DUP1 DUP4 GT PUSH2 0xE00 JUMPI CALLDATASIZE PUSH1 0x23 DUP5 ADD SLT ISZERO PUSH2 0xE00 JUMPI DUP3 DUP8 ADD CALLDATALOAD SWAP1 DUP2 GT PUSH2 0xE00 JUMPI PUSH1 0x5 CALLDATASIZE DUP4 DUP4 DUP4 SHL DUP7 ADD ADD GT PUSH2 0xDFC JUMPI PUSH2 0xB73 PUSH1 0xD SLOAD TIMESTAMP GT ISZERO PUSH2 0x1C7A JUMP JUMPDEST PUSH2 0xB82 PUSH1 0xFF PUSH1 0x11 SLOAD AND ISZERO PUSH2 0x1CBC JUMP JUMPDEST CALLER DUP8 MSTORE PUSH1 0x20 SWAP3 PUSH1 0x15 DUP5 MSTORE DUP7 DUP7 DUP10 KECCAK256 SLOAD LT PUSH2 0xDBB JUMPI DUP7 DUP4 SUB PUSH2 0xD61 JUMPI PUSH2 0xBA9 PUSH1 0xC SLOAD DUP9 PUSH2 0x1C51 JUMP JUMPDEST SWAP9 PUSH1 0x55 DUP11 MUL SWAP10 DUP1 DUP12 DIV PUSH1 0x55 EQ SWAP1 ISZERO OR ISZERO PUSH2 0xD50 JUMPI PUSH1 0x64 DUP1 SWAP11 DIV SWAP6 DUP10 JUMPDEST DUP10 DUP2 LT PUSH2 0xC44 JUMPI DUP11 DUP11 PUSH32 0xBB0B559A8CEC57E45F96B1DABFA10D9FEB90A11836E2C6538452370E9A430C13 DUP12 DUP12 DUP12 CALLER DUP7 MSTORE PUSH1 0x15 DUP2 MSTORE DUP3 DUP7 KECCAK256 PUSH2 0xC07 DUP7 DUP3 SLOAD PUSH2 0x1D0E JUMP JUMPDEST SWAP1 SSTORE PUSH2 0xC15 DUP6 PUSH1 0xF SLOAD PUSH2 0x1D0E JUMP JUMPDEST PUSH1 0xF SSTORE PUSH2 0xC24 DUP3 PUSH1 0x10 SLOAD PUSH2 0x1D0E JUMP JUMPDEST PUSH1 0x10 SSTORE PUSH2 0xC31 DUP3 CALLER PUSH2 0x1D76 JUMP JUMPDEST DUP3 MLOAD SWAP5 DUP6 MSTORE DUP5 ADD MSTORE CALLER SWAP3 LOG2 PUSH2 0x31E PUSH2 0x1E51 JUMP JUMPDEST DUP6 DUP2 LT ISZERO PUSH2 0xD3E JUMPI DUP1 DUP6 SHL DUP3 ADD DUP5 ADD CALLDATALOAD PUSH1 0x1 PUSH1 0x1 PUSH1 0xA0 SHL SUB CALLER DUP2 PUSH2 0xC67 DUP5 PUSH2 0x17EF JUMP JUMPDEST AND SUB PUSH2 0xCFD JUMPI SWAP1 DUP13 PUSH2 0xCF8 SWAP4 SWAP3 PUSH2 0xC7D DUP4 PUSH2 0x17EF JUMP JUMPDEST POP PUSH2 0xC87 DUP4 PUSH2 0x17EF JUMP JUMPDEST DUP4 DUP4 MSTORE PUSH1 0x6 DUP13 MSTORE DUP14 DUP4 KECCAK256 DUP1 SLOAD PUSH1 0x1 PUSH1 0x1 PUSH1 0xA0 SHL SUB NOT SWAP1 DUP2 AND SWAP1 SWAP2 SSTORE SWAP2 AND DUP1 DUP4 MSTORE DUP10 DUP13 MSTORE DUP14 DUP4 KECCAK256 DUP1 SLOAD PUSH1 0x0 NOT ADD SWAP1 SSTORE DUP4 DUP4 MSTORE DUP8 DUP13 MSTORE DUP14 DUP4 KECCAK256 DUP1 SLOAD SWAP1 SWAP3 AND SWAP1 SWAP2 SSTORE PUSH32 0xDDF252AD1BE2C89B69C2B068FC378DAA952BA7F163C4A11628F55A4DF523B3EF DUP3 DUP1 LOG4 PUSH1 0x1 DUP9 MSTORE DUP12 DUP11 DUP2 KECCAK256 SSTORE PUSH2 0x1D1B JUMP JUMPDEST PUSH2 0xBC5 JUMP JUMPDEST DUP11 MLOAD PUSH3 0x461BCD PUSH1 0xE5 SHL DUP2 MSTORE DUP1 DUP7 ADD DUP11 SWAP1 MSTORE PUSH1 0x18 DUP2 DUP9 ADD MSTORE PUSH32 0x596F7520646F206E6F74206F776E2074686973204E46542E0000000000000000 PUSH1 0x44 DUP3 ADD MSTORE DUP15 SWAP1 REVERT JUMPDEST PUSH4 0x4E487B71 PUSH1 0xE0 SHL DUP12 MSTORE PUSH1 0x32 DUP4 MSTORE DUP4 DUP12 REVERT JUMPDEST PUSH4 0x4E487B71 PUSH1 0xE0 SHL DUP10 MSTORE PUSH1 0x11 SWAP1 MSTORE DUP8 REVERT JUMPDEST DUP9 PUSH1 0x30 PUSH1 0x84 SWAP3 DUP7 DUP10 MLOAD SWAP4 PUSH3 0x461BCD PUSH1 0xE5 SHL DUP6 MSTORE DUP5 ADD MSTORE DUP3 ADD MSTORE PUSH32 0x4E756D626572206F6620746F6B656E20494473206D757374206D61746368206E PUSH1 0x44 DUP3 ADD MSTORE PUSH16 0x3AB6B132B91037B31039B430B932B997 PUSH1 0x81 SHL PUSH1 0x64 DUP3 ADD MSTORE REVERT JUMPDEST DUP9 PUSH1 0x1C PUSH1 0x64 SWAP3 DUP7 DUP10 MLOAD SWAP4 PUSH3 0x461BCD PUSH1 0xE5 SHL DUP6 MSTORE DUP5 ADD MSTORE DUP3 ADD MSTORE PUSH32 0x4E6F7420656E6F7567682073686172657320746F20726566756E642E00000000 PUSH1 0x44 DUP3 ADD MSTORE REVERT JUMPDEST DUP7 DUP1 REVERT JUMPDEST DUP6 DUP1 REVERT JUMPDEST DUP4 CALLVALUE PUSH2 0x88E JUMPI DUP1 PUSH1 0x3 NOT CALLDATASIZE ADD SLT PUSH2 0x88E JUMPI PUSH2 0xE1D PUSH2 0x174B JUMP JUMPDEST PUSH1 0x8 DUP1 SLOAD PUSH1 0x1 PUSH1 0x1 PUSH1 0xA0 SHL SUB NOT DUP2 AND SWAP1 SWAP2 SSTORE DUP2 SWAP1 PUSH1 0x1 PUSH1 0x1 PUSH1 0xA0 SHL SUB AND PUSH32 0x8BE0079C531659141344CD1FD0A4F28419497F9722A3DAAFE3B4186F6B6457E0 DUP3 DUP1 LOG3 DUP1 RETURN JUMPDEST POP DUP3 SWAP1 CALLVALUE PUSH2 0x2E0 JUMPI PUSH1 0x20 CALLDATASIZE PUSH1 0x3 NOT ADD SLT PUSH2 0x2E0 JUMPI PUSH1 0x1 PUSH1 0x1 PUSH1 0xA0 SHL SUB PUSH2 0xE85 PUSH2 0x1619 JUMP JUMPDEST AND SWAP1 DUP2 ISZERO PUSH2 0xEA2 JUMPI PUSH1 0x20 DUP5 DUP1 DUP6 DUP6 DUP2 MSTORE PUSH1 0x5 DUP5 MSTORE KECCAK256 SLOAD SWAP1 MLOAD SWAP1 DUP2 MSTORE RETURN JUMPDEST PUSH1 0x84 SWAP1 PUSH1 0x20 DUP6 MLOAD SWAP2 PUSH3 0x461BCD PUSH1 0xE5 SHL DUP4 MSTORE DUP3 ADD MSTORE PUSH1 0x29 PUSH1 0x24 DUP3 ADD MSTORE PUSH32 0x4552433732313A2061646472657373207A65726F206973206E6F742061207661 PUSH1 0x44 DUP3 ADD MSTORE PUSH9 0x3634B21037BBB732B9 PUSH1 0xB9 SHL PUSH1 0x64 DUP3 ADD MSTORE REVERT JUMPDEST POP POP CALLVALUE PUSH2 0x2E0 JUMPI DUP2 PUSH1 0x3 NOT CALLDATASIZE ADD SLT PUSH2 0x2E0 JUMPI PUSH1 0x20 SWAP1 PUSH1 0x10 SLOAD SWAP1 MLOAD SWAP1 DUP2 MSTORE RETURN JUMPDEST POP SWAP2 CALLVALUE PUSH2 0x88E JUMPI PUSH1 0x20 CALLDATASIZE PUSH1 0x3 NOT ADD SLT PUSH2 0x88E JUMPI POP PUSH2 0xF36 PUSH1 0x20 SWAP3 CALLDATALOAD PUSH2 0x17EF JUMP JUMPDEST SWAP1 MLOAD PUSH1 0x1 PUSH1 0x1 PUSH1 0xA0 SHL SUB SWAP1 SWAP2 AND DUP2 MSTORE RETURN JUMPDEST POP POP CALLVALUE PUSH2 0x2E0 JUMPI DUP2 PUSH1 0x3 NOT CALLDATASIZE ADD SLT PUSH2 0x2E0 JUMPI PUSH1 0x12 SLOAD SWAP1 MLOAD PUSH1 0x1 PUSH1 0x1 PUSH1 0xA0 SHL SUB SWAP1 SWAP2 AND DUP2 MSTORE PUSH1 0x20 SWAP1 RETURN JUMPDEST POP POP CALLVALUE PUSH2 0x2E0 JUMPI PUSH2 0x31E SWAP1 PUSH2 0xF84 CALLDATASIZE PUSH2 0x16FA JUMP JUMPDEST SWAP2 SWAP3 MLOAD SWAP3 PUSH2 0xF91 DUP5 PUSH2 0x16BC JUMP JUMPDEST DUP6 DUP5 MSTORE PUSH2 0x18B5 JUMP JUMPDEST POP POP CALLVALUE PUSH2 0x2E0 JUMPI DUP2 PUSH1 0x3 NOT CALLDATASIZE ADD SLT PUSH2 0x2E0 JUMPI PUSH1 0x11 SLOAD SWAP1 MLOAD PUSH1 0x10 SWAP2 SWAP1 SWAP2 SHR PUSH1 0x1 PUSH1 0x1 PUSH1 0xA0 SHL SUB AND DUP2 MSTORE PUSH1 0x20 SWAP1 RETURN JUMPDEST POP POP CALLVALUE PUSH2 0x2E0 JUMPI DUP2 PUSH1 0x3 NOT CALLDATASIZE ADD SLT PUSH2 0x2E0 JUMPI PUSH1 0x20 SWAP1 PUSH1 0xE SLOAD SWAP1 MLOAD SWAP1 DUP2 MSTORE RETURN JUMPDEST POP POP CALLVALUE PUSH2 0x2E0 JUMPI DUP2 PUSH1 0x3 NOT CALLDATASIZE ADD SLT PUSH2 0x2E0 JUMPI PUSH1 0x20 SWAP1 PUSH1 0xD SLOAD SWAP1 MLOAD SWAP1 DUP2 MSTORE RETURN JUMPDEST POP DUP3 SWAP1 CALLVALUE PUSH2 0x2E0 JUMPI DUP3 PUSH1 0x3 NOT CALLDATASIZE ADD SLT PUSH2 0x2E0 JUMPI CALLDATALOAD DUP2 MSTORE PUSH1 0x1 PUSH1 0x20 MSTORE DUP2 DUP2 KECCAK256 DUP3 MLOAD SWAP1 PUSH2 0x102E DUP3 PUSH2 0x168A JUMP JUMPDEST SLOAD PUSH1 0x1 PUSH1 0x1 PUSH1 0xA0 SHL SUB DUP1 DUP3 AND DUP1 DUP5 MSTORE PUSH1 0xA0 SWAP3 SWAP1 SWAP3 SHR PUSH1 0x20 DUP5 ADD MSTORE SWAP2 SWAP3 SWAP1 ISZERO PUSH2 0x107F JUMPI JUMPDEST POP PUSH2 0x2710 PUSH2 0x106E PUSH1 0x1 PUSH1 0x1 PUSH1 0x60 SHL SUB PUSH1 0x20 DUP6 ADD MLOAD AND PUSH1 0x24 CALLDATALOAD PUSH2 0x1C51 JUMP JUMPDEST DIV SWAP2 MLOAD AND SWAP1 DUP3 MLOAD SWAP2 DUP3 MSTORE PUSH1 0x20 DUP3 ADD MSTORE RETURN JUMPDEST DUP4 MLOAD SWAP2 SWAP3 POP PUSH2 0x108D DUP3 PUSH2 0x168A JUMP JUMPDEST SLOAD DUP3 DUP2 AND DUP3 MSTORE PUSH1 0xA0 SHR PUSH1 0x20 DUP3 ADD MSTORE SWAP1 DUP4 PUSH2 0x1051 JUMP JUMPDEST DUP4 CALLVALUE PUSH2 0x88E JUMPI PUSH2 0x31E PUSH2 0x10B4 CALLDATASIZE PUSH2 0x16FA JUMP JUMPDEST SWAP2 PUSH2 0x10C7 PUSH2 0x10C2 DUP5 CALLER PUSH2 0x1950 JUMP JUMPDEST PUSH2 0x1853 JUMP JUMPDEST PUSH2 0x1A18 JUMP JUMPDEST POP POP CALLVALUE PUSH2 0x2E0 JUMPI DUP2 PUSH1 0x3 NOT CALLDATASIZE ADD SLT PUSH2 0x2E0 JUMPI PUSH1 0x20 SWAP1 PUSH1 0xF SLOAD SWAP1 MLOAD SWAP1 DUP2 MSTORE RETURN JUMPDEST POP POP CALLVALUE PUSH2 0x2E0 JUMPI PUSH1 0x20 CALLDATASIZE PUSH1 0x3 NOT ADD SLT PUSH2 0x2E0 JUMPI PUSH1 0x20 SWAP2 DUP2 SWAP1 PUSH1 0x1 PUSH1 0x1 PUSH1 0xA0 SHL SUB PUSH2 0x1113 PUSH2 0x1619 JUMP JUMPDEST AND DUP2 MSTORE PUSH1 0x15 DUP5 MSTORE KECCAK256 SLOAD SWAP1 MLOAD SWAP1 DUP2 MSTORE RETURN JUMPDEST POP CALLVALUE PUSH2 0x28E JUMPI DUP2 PUSH1 0x3 NOT CALLDATASIZE ADD SLT PUSH2 0x28E JUMPI PUSH2 0x113C PUSH2 0x1619 JUMP JUMPDEST PUSH1 0x24 CALLDATALOAD SWAP3 SWAP1 SWAP2 PUSH1 0x1 PUSH1 0x1 PUSH1 0xA0 SHL SUB SWAP2 SWAP1 DUP3 DUP1 PUSH2 0x1157 DUP8 PUSH2 0x17EF JUMP JUMPDEST AND SWAP5 AND SWAP4 DUP1 DUP6 EQ PUSH2 0x1246 JUMPI DUP1 CALLER EQ SWAP1 DUP2 ISZERO PUSH2 0x1227 JUMPI JUMPDEST POP ISZERO PUSH2 0x11BF JUMPI POP DUP4 DUP6 MSTORE PUSH1 0x6 PUSH1 0x20 MSTORE DUP5 KECCAK256 DUP1 SLOAD PUSH1 0x1 PUSH1 0x1 PUSH1 0xA0 SHL SUB NOT AND DUP4 OR SWAP1 SSTORE PUSH2 0x1197 DUP4 PUSH2 0x17EF JUMP JUMPDEST AND PUSH32 0x8C5BE1E5EBEC7D5BD14F71427D1E84F3DD0314C0F7B2291E5B200AC8C7C3B925 DUP5 DUP1 LOG4 DUP1 RETURN JUMPDEST PUSH1 0x20 PUSH1 0x84 SWAP3 MLOAD SWAP2 PUSH3 0x461BCD PUSH1 0xE5 SHL DUP4 MSTORE DUP3 ADD MSTORE PUSH1 0x3D PUSH1 0x24 DUP3 ADD MSTORE PUSH32 0x4552433732313A20617070726F76652063616C6C6572206973206E6F7420746F PUSH1 0x44 DUP3 ADD MSTORE PUSH32 0x6B656E206F776E6572206F7220617070726F76656420666F7220616C6C000000 PUSH1 0x64 DUP3 ADD MSTORE REVERT JUMPDEST SWAP1 POP DUP7 MSTORE PUSH1 0x7 PUSH1 0x20 MSTORE DUP2 DUP7 KECCAK256 CALLER DUP8 MSTORE PUSH1 0x20 MSTORE PUSH1 0xFF DUP3 DUP8 KECCAK256 SLOAD AND CODESIZE PUSH2 0x116D JUMP JUMPDEST POP PUSH1 0x20 PUSH1 0x84 SWAP3 MLOAD SWAP2 PUSH3 0x461BCD PUSH1 0xE5 SHL DUP4 MSTORE DUP3 ADD MSTORE PUSH1 0x21 PUSH1 0x24 DUP3 ADD MSTORE PUSH32 0x4552433732313A20617070726F76616C20746F2063757272656E74206F776E65 PUSH1 0x44 DUP3 ADD MSTORE PUSH1 0x39 PUSH1 0xF9 SHL PUSH1 0x64 DUP3 ADD MSTORE REVERT JUMPDEST POP SWAP2 CALLVALUE PUSH2 0x88E JUMPI PUSH1 0x20 CALLDATASIZE PUSH1 0x3 NOT ADD SLT PUSH2 0x88E JUMPI POP PUSH2 0xF36 PUSH1 0x20 SWAP3 CALLDATALOAD PUSH2 0x1815 JUMP JUMPDEST POP SWAP2 CALLVALUE PUSH2 0x88E JUMPI DUP1 PUSH1 0x3 NOT CALLDATASIZE ADD SLT PUSH2 0x88E JUMPI DUP2 MLOAD SWAP2 DUP2 PUSH1 0x9 SLOAD SWAP3 PUSH1 0x1 DUP5 DUP2 SHR SWAP2 DUP2 DUP7 AND SWAP6 DUP7 ISZERO PUSH2 0x1376 JUMPI JUMPDEST PUSH1 0x20 SWAP7 DUP8 DUP6 LT DUP2 EQ PUSH2 0x9DB JUMPI DUP9 SWAP10 POP SWAP7 DUP9 SWAP7 SWAP8 DUP6 DUP3 SWAP11 MSTORE SWAP2 DUP3 PUSH1 0x0 EQ PUSH2 0x9B4 JUMPI POP POP PUSH1 0x1 EQ PUSH2 0x131A JUMPI POP POP POP PUSH2 0x6CF SWAP3 SWAP2 PUSH2 0x949 SWAP2 SUB DUP6 PUSH2 0x16D8 JUMP JUMPDEST SWAP2 SWAP1 DUP7 SWAP4 POP PUSH1 0x9 DUP4 MSTORE PUSH32 0x6E1540171B6C0C960B71A7020D9F60077F6AF931A8BBF590DA0223DACF75C7AF JUMPDEST DUP3 DUP5 LT PUSH2 0x135E JUMPI POP POP POP DUP3 ADD ADD DUP2 PUSH2 0x949 PUSH2 0x6CF PUSH2 0x936 JUMP JUMPDEST DUP1 SLOAD DUP5 DUP11 ADD DUP7 ADD MSTORE DUP9 SWAP6 POP DUP8 SWAP5 SWAP1 SWAP4 ADD SWAP3 DUP2 ADD PUSH2 0x1345 JUMP JUMPDEST SWAP3 PUSH1 0x7F AND SWAP3 PUSH2 0x12DE JUMP JUMPDEST POP SWAP2 CALLVALUE PUSH2 0x88E JUMPI DUP1 PUSH1 0x3 NOT CALLDATASIZE ADD SLT PUSH2 0x88E JUMPI DUP2 MLOAD SWAP2 DUP2 PUSH1 0x2 SLOAD SWAP3 PUSH1 0x1 DUP5 DUP2 SHR SWAP2 DUP2 DUP7 AND SWAP6 DUP7 ISZERO PUSH2 0x1443 JUMPI JUMPDEST PUSH1 0x20 SWAP7 DUP8 DUP6 LT DUP2 EQ PUSH2 0x9DB JUMPI DUP9 SWAP10 POP SWAP7 DUP9 SWAP7 SWAP8 DUP6 DUP3 SWAP11 MSTORE SWAP2 DUP3 PUSH1 0x0 EQ PUSH2 0x9B4 JUMPI POP POP PUSH1 0x1 EQ PUSH2 0x13E7 JUMPI POP POP POP PUSH2 0x6CF SWAP3 SWAP2 PUSH2 0x949 SWAP2 SUB DUP6 PUSH2 0x16D8 JUMP JUMPDEST SWAP2 SWAP1 DUP7 SWAP4 POP PUSH1 0x2 DUP4 MSTORE PUSH32 0x405787FA12A823E0F2B7631CC41B3BA8828B3321CA811111FA75CD3AA3BB5ACE JUMPDEST DUP3 DUP5 LT PUSH2 0x142B JUMPI POP POP POP DUP3 ADD ADD DUP2 PUSH2 0x949 PUSH2 0x6CF PUSH2 0x936 JUMP JUMPDEST DUP1 SLOAD DUP5 DUP11 ADD DUP7 ADD MSTORE DUP9 SWAP6 POP DUP8 SWAP5 SWAP1 SWAP4 ADD SWAP3 DUP2 ADD PUSH2 0x1412 JUMP JUMPDEST SWAP3 PUSH1 0x7F AND SWAP3 PUSH2 0x13AB JUMP JUMPDEST POP SWAP1 CALLVALUE PUSH2 0x28E JUMPI DUP1 PUSH1 0x3 NOT CALLDATASIZE ADD SLT PUSH2 0x28E JUMPI PUSH2 0x1467 PUSH2 0x1619 JUMP JUMPDEST SWAP2 PUSH1 0x24 CALLDATALOAD PUSH1 0x1 PUSH1 0x1 PUSH1 0x60 SHL SUB DUP2 AND SWAP4 DUP5 DUP3 SUB PUSH2 0xE00 JUMPI PUSH1 0xA SLOAD PUSH1 0x1 PUSH1 0x1 PUSH1 0xA0 SHL SUB SWAP2 SWAP1 PUSH2 0x1497 SWAP1 DUP4 AND CALLER EQ PUSH2 0x2062 JUMP JUMPDEST AND SWAP2 DUP3 ISZERO PUSH2 0x1550 JUMPI PUSH2 0x2710 DUP6 GT PUSH2 0x14FA JUMPI POP SWAP2 DUP4 SWAP2 PUSH1 0x20 SWAP4 PUSH32 0x286671B4039436F3AA3E551CE5DC76FBF4DAE750028CBC933C7B30DB3AA355BC SWAP6 DUP6 DUP5 MLOAD PUSH2 0x14DD DUP2 PUSH2 0x168A JUMP JUMPDEST DUP5 DUP2 MSTORE ADD MSTORE PUSH1 0xA0 SHL PUSH1 0x1 PUSH1 0x1 PUSH1 0xA0 SHL SUB NOT AND OR DUP6 SSTORE MLOAD SWAP1 DUP2 MSTORE LOG1 DUP1 RETURN JUMPDEST PUSH1 0x84 SWAP1 PUSH1 0x20 DUP6 MLOAD SWAP2 PUSH3 0x461BCD PUSH1 0xE5 SHL DUP4 MSTORE DUP3 ADD MSTORE PUSH1 0x2A PUSH1 0x24 DUP3 ADD MSTORE PUSH32 0x455243323938313A20726F79616C7479206665652077696C6C20657863656564 PUSH1 0x44 DUP3 ADD MSTORE PUSH10 0x2073616C655072696365 PUSH1 0xB0 SHL PUSH1 0x64 DUP3 ADD MSTORE REVERT JUMPDEST PUSH1 0x64 SWAP1 PUSH1 0x20 DUP6 MLOAD SWAP2 PUSH3 0x461BCD PUSH1 0xE5 SHL DUP4 MSTORE DUP3 ADD MSTORE PUSH1 0x20 PUSH1 0x24 DUP3 ADD MSTORE PUSH32 0x496E76616C696420726F79616C74792072656365697665722061646472657373 PUSH1 0x44 DUP3 ADD MSTORE REVERT JUMPDEST SWAP3 POP POP CALLVALUE PUSH2 0x28E JUMPI PUSH1 0x20 CALLDATASIZE PUSH1 0x3 NOT ADD SLT PUSH2 0x28E JUMPI CALLDATALOAD PUSH4 0xFFFFFFFF PUSH1 0xE0 SHL DUP2 AND DUP1 SWAP2 SUB PUSH2 0x28E JUMPI PUSH1 0x20 SWAP3 POP PUSH4 0x80AC58CD PUSH1 0xE0 SHL DUP2 EQ SWAP1 DUP2 ISZERO PUSH2 0x1608 JUMPI JUMPDEST DUP2 ISZERO PUSH2 0x15DD JUMPI JUMPDEST POP ISZERO ISZERO DUP2 MSTORE RETURN JUMPDEST PUSH4 0x152A902D PUSH1 0xE1 SHL DUP2 EQ SWAP2 POP DUP2 ISZERO PUSH2 0x15F7 JUMPI JUMPDEST POP CODESIZE PUSH2 0x15D6 JUMP JUMPDEST PUSH4 0x1FFC9A7 PUSH1 0xE0 SHL EQ SWAP1 POP CODESIZE PUSH2 0x15F0 JUMP JUMPDEST PUSH4 0x5B5E139F PUSH1 0xE0 SHL DUP2 EQ SWAP2 POP PUSH2 0x15CF JUMP JUMPDEST PUSH1 0x4 CALLDATALOAD SWAP1 PUSH1 0x1 PUSH1 0x1 PUSH1 0xA0 SHL SUB DUP3 AND DUP3 SUB PUSH2 0x162F JUMPI JUMP JUMPDEST PUSH1 0x0 DUP1 REVERT JUMPDEST PUSH1 0x24 CALLDATALOAD SWAP1 PUSH1 0x1 PUSH1 0x1 PUSH1 0xA0 SHL SUB DUP3 AND DUP3 SUB PUSH2 0x162F JUMPI JUMP JUMPDEST SWAP2 SWAP1 DUP3 MLOAD SWAP3 DUP4 DUP3 MSTORE PUSH1 0x0 JUMPDEST DUP5 DUP2 LT PUSH2 0x1676 JUMPI POP POP DUP3 PUSH1 0x0 PUSH1 0x20 DUP1 SWAP5 SWAP6 DUP5 ADD ADD MSTORE PUSH1 0x1F DUP1 NOT SWAP2 ADD AND ADD ADD SWAP1 JUMP JUMPDEST PUSH1 0x20 DUP2 DUP4 ADD DUP2 ADD MLOAD DUP5 DUP4 ADD DUP3 ADD MSTORE ADD PUSH2 0x1655 JUMP JUMPDEST PUSH1 0x40 DUP2 ADD SWAP1 DUP2 LT PUSH8 0xFFFFFFFFFFFFFFFF DUP3 GT OR PUSH2 0x16A6 JUMPI PUSH1 0x40 MSTORE JUMP JUMPDEST PUSH4 0x4E487B71 PUSH1 0xE0 SHL PUSH1 0x0 MSTORE PUSH1 0x41 PUSH1 0x4 MSTORE PUSH1 0x24 PUSH1 0x0 REVERT JUMPDEST PUSH1 0x20 DUP2 ADD SWAP1 DUP2 LT PUSH8 0xFFFFFFFFFFFFFFFF DUP3 GT OR PUSH2 0x16A6 JUMPI PUSH1 0x40 MSTORE JUMP JUMPDEST SWAP1 PUSH1 0x1F DUP1 NOT SWAP2 ADD AND DUP2 ADD SWAP1 DUP2 LT PUSH8 0xFFFFFFFFFFFFFFFF DUP3 GT OR PUSH2 0x16A6 JUMPI PUSH1 0x40 MSTORE JUMP JUMPDEST PUSH1 0x60 SWAP1 PUSH1 0x3 NOT ADD SLT PUSH2 0x162F JUMPI PUSH1 0x1 PUSH1 0x1 PUSH1 0xA0 SHL SUB SWAP1 PUSH1 0x4 CALLDATALOAD DUP3 DUP2 AND DUP2 SUB PUSH2 0x162F JUMPI SWAP2 PUSH1 0x24 CALLDATALOAD SWAP1 DUP2 AND DUP2 SUB PUSH2 0x162F JUMPI SWAP1 PUSH1 0x44 CALLDATALOAD SWAP1 JUMP JUMPDEST PUSH8 0xFFFFFFFFFFFFFFFF DUP2 GT PUSH2 0x16A6 JUMPI PUSH1 0x1F ADD PUSH1 0x1F NOT AND PUSH1 0x20 ADD SWAP1 JUMP JUMPDEST PUSH1 0x8 SLOAD PUSH1 0x1 PUSH1 0x1 PUSH1 0xA0 SHL SUB AND CALLER SUB PUSH2 0x175F JUMPI JUMP JUMPDEST PUSH1 0x64 PUSH1 0x40 MLOAD PUSH3 0x461BCD PUSH1 0xE5 SHL DUP2 MSTORE PUSH1 0x20 PUSH1 0x4 DUP3 ADD MSTORE PUSH1 0x20 PUSH1 0x24 DUP3 ADD MSTORE PUSH32 0x4F776E61626C653A2063616C6C6572206973206E6F7420746865206F776E6572 PUSH1 0x44 DUP3 ADD MSTORE REVERT JUMPDEST ISZERO PUSH2 0x17AA JUMPI JUMP JUMPDEST PUSH1 0x40 MLOAD PUSH3 0x461BCD PUSH1 0xE5 SHL DUP2 MSTORE PUSH1 0x20 PUSH1 0x4 DUP3 ADD MSTORE PUSH1 0x18 PUSH1 0x24 DUP3 ADD MSTORE PUSH32 0x4552433732313A20696E76616C696420746F6B656E2049440000000000000000 PUSH1 0x44 DUP3 ADD MSTORE PUSH1 0x64 SWAP1 REVERT JUMPDEST PUSH1 0x0 SWAP1 DUP2 MSTORE PUSH1 0x4 PUSH1 0x20 MSTORE PUSH1 0x40 SWAP1 KECCAK256 SLOAD PUSH1 0x1 PUSH1 0x1 PUSH1 0xA0 SHL SUB AND PUSH2 0x1812 DUP2 ISZERO ISZERO PUSH2 0x17A3 JUMP JUMPDEST SWAP1 JUMP JUMPDEST PUSH1 0x0 DUP2 DUP2 MSTORE PUSH1 0x4 PUSH1 0x20 MSTORE PUSH1 0x40 SWAP1 KECCAK256 SLOAD PUSH2 0x1838 SWAP1 PUSH1 0x1 PUSH1 0x1 PUSH1 0xA0 SHL SUB AND ISZERO ISZERO PUSH2 0x17A3 JUMP JUMPDEST PUSH1 0x0 SWAP1 DUP2 MSTORE PUSH1 0x6 PUSH1 0x20 MSTORE PUSH1 0x40 SWAP1 KECCAK256 SLOAD PUSH1 0x1 PUSH1 0x1 PUSH1 0xA0 SHL SUB AND SWAP1 JUMP JUMPDEST ISZERO PUSH2 0x185A JUMPI JUMP JUMPDEST PUSH1 0x40 MLOAD PUSH3 0x461BCD PUSH1 0xE5 SHL DUP2 MSTORE PUSH1 0x20 PUSH1 0x4 DUP3 ADD MSTORE PUSH1 0x2D PUSH1 0x24 DUP3 ADD MSTORE PUSH32 0x4552433732313A2063616C6C6572206973206E6F7420746F6B656E206F776E65 PUSH1 0x44 DUP3 ADD MSTORE PUSH13 0x1C881BDC88185C1C1C9BDD9959 PUSH1 0x9A SHL PUSH1 0x64 DUP3 ADD MSTORE PUSH1 0x84 SWAP1 REVERT JUMPDEST SWAP1 PUSH2 0x18D9 SWAP4 SWAP3 SWAP2 PUSH2 0x18C9 PUSH2 0x10C2 DUP5 CALLER PUSH2 0x1950 JUMP JUMPDEST PUSH2 0x18D4 DUP4 DUP4 DUP4 PUSH2 0x1A18 JUMP JUMPDEST PUSH2 0x1B59 JUMP JUMPDEST ISZERO PUSH2 0x18E0 JUMPI JUMP JUMPDEST PUSH1 0x40 MLOAD PUSH3 0x461BCD PUSH1 0xE5 SHL DUP2 MSTORE DUP1 PUSH2 0x18F9 PUSH1 0x4 DUP3 ADD PUSH2 0x18FD JUMP JUMPDEST SUB SWAP1 REVERT JUMPDEST PUSH1 0x80 SWAP1 PUSH1 0x20 DUP2 MSTORE PUSH1 0x32 PUSH1 0x20 DUP3 ADD MSTORE PUSH32 0x4552433732313A207472616E7366657220746F206E6F6E204552433732315265 PUSH1 0x40 DUP3 ADD MSTORE PUSH18 0x31B2B4BB32B91034B6B83632B6B2B73A32B9 PUSH1 0x71 SHL PUSH1 0x60 DUP3 ADD MSTORE ADD SWAP1 JUMP JUMPDEST SWAP1 PUSH1 0x1 PUSH1 0x1 PUSH1 0xA0 SHL SUB DUP1 DUP1 PUSH2 0x1964 DUP5 PUSH2 0x17EF JUMP JUMPDEST AND SWAP4 AND SWAP2 DUP4 DUP4 EQ SWAP4 DUP5 ISZERO PUSH2 0x1997 JUMPI JUMPDEST POP DUP4 ISZERO PUSH2 0x1981 JUMPI JUMPDEST POP POP POP SWAP1 JUMP JUMPDEST PUSH2 0x198D SWAP2 SWAP3 SWAP4 POP PUSH2 0x1815 JUMP JUMPDEST AND EQ CODESIZE DUP1 DUP1 PUSH2 0x197B JUMP JUMPDEST SWAP1 SWAP4 POP PUSH1 0x0 MSTORE PUSH1 0x7 PUSH1 0x20 MSTORE PUSH1 0x40 PUSH1 0x0 KECCAK256 DUP3 PUSH1 0x0 MSTORE PUSH1 0x20 MSTORE PUSH1 0xFF PUSH1 0x40 PUSH1 0x0 KECCAK256 SLOAD AND SWAP3 CODESIZE PUSH2 0x1973 JUMP JUMPDEST ISZERO PUSH2 0x19C5 JUMPI JUMP JUMPDEST PUSH1 0x40 MLOAD PUSH3 0x461BCD PUSH1 0xE5 SHL DUP2 MSTORE PUSH1 0x20 PUSH1 0x4 DUP3 ADD MSTORE PUSH1 0x25 PUSH1 0x24 DUP3 ADD MSTORE PUSH32 0x4552433732313A207472616E736665722066726F6D20696E636F727265637420 PUSH1 0x44 DUP3 ADD MSTORE PUSH5 0x37BBB732B9 PUSH1 0xD9 SHL PUSH1 0x64 DUP3 ADD MSTORE PUSH1 0x84 SWAP1 REVERT JUMPDEST SWAP1 PUSH2 0x1A40 SWAP2 PUSH2 0x1A26 DUP5 PUSH2 0x17EF JUMP JUMPDEST PUSH1 0x1 PUSH1 0x1 PUSH1 0xA0 SHL SUB SWAP4 SWAP2 DUP5 AND SWAP3 DUP5 SWAP3 SWAP1 SWAP2 DUP4 AND DUP5 EQ PUSH2 0x19BE JUMP JUMPDEST AND SWAP2 DUP3 ISZERO PUSH2 0x1AD8 JUMPI DUP2 PUSH2 0x1A5D SWAP2 PUSH2 0x1A56 DUP7 PUSH2 0x17EF JUMP JUMPDEST AND EQ PUSH2 0x19BE JUMP JUMPDEST PUSH32 0xDDF252AD1BE2C89B69C2B068FC378DAA952BA7F163C4A11628F55A4DF523B3EF PUSH1 0x0 DUP5 DUP2 MSTORE PUSH1 0x6 PUSH1 0x20 MSTORE PUSH1 0x40 DUP2 KECCAK256 PUSH1 0x1 PUSH1 0x1 PUSH1 0x60 SHL SUB PUSH1 0xA0 SHL SWAP1 DUP2 DUP2 SLOAD AND SWAP1 SSTORE DUP4 DUP3 MSTORE PUSH1 0x5 PUSH1 0x20 MSTORE PUSH1 0x40 DUP3 KECCAK256 PUSH1 0x0 NOT DUP2 SLOAD ADD SWAP1 SSTORE DUP5 DUP3 MSTORE PUSH1 0x40 DUP3 KECCAK256 PUSH1 0x1 DUP2 SLOAD ADD SWAP1 SSTORE DUP6 DUP3 MSTORE PUSH1 0x4 PUSH1 0x20 MSTORE DUP5 PUSH1 0x40 DUP4 KECCAK256 SWAP2 DUP3 SLOAD AND OR SWAP1 SSTORE DUP1 LOG4 JUMP JUMPDEST PUSH1 0x40 MLOAD PUSH3 0x461BCD PUSH1 0xE5 SHL DUP2 MSTORE PUSH1 0x20 PUSH1 0x4 DUP3 ADD MSTORE PUSH1 0x24 DUP1 DUP3 ADD MSTORE PUSH32 0x4552433732313A207472616E7366657220746F20746865207A65726F20616464 PUSH1 0x44 DUP3 ADD MSTORE PUSH4 0x72657373 PUSH1 0xE0 SHL PUSH1 0x64 DUP3 ADD MSTORE PUSH1 0x84 SWAP1 REVERT JUMPDEST RETURNDATASIZE ISZERO PUSH2 0x1B54 JUMPI RETURNDATASIZE SWAP1 PUSH2 0x1B3A DUP3 PUSH2 0x172F JUMP JUMPDEST SWAP2 PUSH2 0x1B48 PUSH1 0x40 MLOAD SWAP4 DUP5 PUSH2 0x16D8 JUMP JUMPDEST DUP3 MSTORE RETURNDATASIZE PUSH1 0x0 PUSH1 0x20 DUP5 ADD RETURNDATACOPY JUMP JUMPDEST PUSH1 0x60 SWAP1 JUMP JUMPDEST SWAP2 SWAP3 PUSH1 0x0 SWAP3 SWAP2 SWAP1 DUP2 EXTCODESIZE ISZERO PUSH2 0x1C47 JUMPI PUSH1 0x20 SWAP2 PUSH2 0x1BAF SWAP2 DUP6 PUSH1 0x40 MLOAD SWAP6 DUP7 DUP1 SWAP6 DUP2 SWAP5 PUSH4 0xA85BD01 PUSH1 0xE1 SHL SWAP12 DUP13 DUP5 MSTORE CALLER PUSH1 0x4 DUP6 ADD MSTORE PUSH1 0x1 DUP1 PUSH1 0xA0 SHL SUB DUP1 SWAP6 AND PUSH1 0x24 DUP6 ADD MSTORE PUSH1 0x44 DUP5 ADD MSTORE PUSH1 0x80 PUSH1 0x64 DUP5 ADD MSTORE PUSH1 0x84 DUP4 ADD SWAP1 PUSH2 0x164A JUMP JUMPDEST SUB SWAP4 AND GAS CALL SWAP1 DUP3 SWAP1 DUP3 PUSH2 0x1BFF JUMPI JUMPDEST POP POP PUSH2 0x1BF1 JUMPI PUSH2 0x1BCB PUSH2 0x1B29 JUMP JUMPDEST DUP1 MLOAD SWAP1 DUP2 PUSH2 0x1BEC JUMPI PUSH1 0x40 MLOAD PUSH3 0x461BCD PUSH1 0xE5 SHL DUP2 MSTORE DUP1 PUSH2 0x18F9 PUSH1 0x4 DUP3 ADD PUSH2 0x18FD JUMP JUMPDEST PUSH1 0x20 ADD REVERT JUMPDEST PUSH1 0x1 PUSH1 0x1 PUSH1 0xE0 SHL SUB NOT AND EQ SWAP1 JUMP JUMPDEST SWAP1 SWAP2 SWAP3 POP PUSH1 0x20 DUP2 RETURNDATASIZE DUP3 GT PUSH2 0x1C3F JUMPI JUMPDEST DUP2 PUSH2 0x1C1B PUSH1 0x20 SWAP4 DUP4 PUSH2 0x16D8 JUMP JUMPDEST DUP2 ADD SUB SLT PUSH2 0x2E0 JUMPI MLOAD SWAP1 PUSH1 0x1 PUSH1 0x1 PUSH1 0xE0 SHL SUB NOT DUP3 AND DUP3 SUB PUSH2 0x88E JUMPI POP SWAP1 CODESIZE DUP1 PUSH2 0x1BBD JUMP JUMPDEST RETURNDATASIZE SWAP2 POP PUSH2 0x1C0E JUMP JUMPDEST POP POP POP POP POP PUSH1 0x1 SWAP1 JUMP JUMPDEST DUP2 DUP2 MUL SWAP3 SWAP2 DUP2 ISZERO SWAP2 DUP5 DIV EQ OR ISZERO PUSH2 0x1C64 JUMPI JUMP JUMPDEST PUSH4 0x4E487B71 PUSH1 0xE0 SHL PUSH1 0x0 MSTORE PUSH1 0x11 PUSH1 0x4 MSTORE PUSH1 0x24 PUSH1 0x0 REVERT JUMPDEST ISZERO PUSH2 0x1C81 JUMPI JUMP JUMPDEST PUSH1 0x40 MLOAD PUSH3 0x461BCD PUSH1 0xE5 SHL DUP2 MSTORE PUSH1 0x20 PUSH1 0x4 DUP3 ADD MSTORE PUSH1 0x13 PUSH1 0x24 DUP3 ADD MSTORE PUSH19 0x21B0B6B830B4B3B7103430B99032B73232B217 PUSH1 0x69 SHL PUSH1 0x44 DUP3 ADD MSTORE PUSH1 0x64 SWAP1 REVERT JUMPDEST ISZERO PUSH2 0x1CC3 JUMPI JUMP JUMPDEST PUSH1 0x40 MLOAD PUSH3 0x461BCD PUSH1 0xE5 SHL DUP2 MSTORE PUSH1 0x20 PUSH1 0x4 DUP3 ADD MSTORE PUSH1 0x16 PUSH1 0x24 DUP3 ADD MSTORE PUSH22 0x21B0B6B830B4B3B71034B9903334B730B634BD32B217 PUSH1 0x51 SHL PUSH1 0x44 DUP3 ADD MSTORE PUSH1 0x64 SWAP1 REVERT JUMPDEST SWAP2 SWAP1 DUP3 ADD DUP1 SWAP3 GT PUSH2 0x1C64 JUMPI JUMP JUMPDEST SWAP2 SWAP1 DUP3 SUB SWAP2 DUP3 GT PUSH2 0x1C64 JUMPI JUMP JUMPDEST PUSH1 0x0 NOT DUP2 EQ PUSH2 0x1C64 JUMPI PUSH1 0x1 ADD SWAP1 JUMP JUMPDEST ISZERO PUSH2 0x1D31 JUMPI JUMP JUMPDEST PUSH1 0x40 MLOAD PUSH3 0x461BCD PUSH1 0xE5 SHL DUP2 MSTORE PUSH1 0x20 PUSH1 0x4 DUP3 ADD MSTORE PUSH1 0x1C PUSH1 0x24 DUP3 ADD MSTORE PUSH32 0x4552433732313A20746F6B656E20616C7265616479206D696E74656400000000 PUSH1 0x44 DUP3 ADD MSTORE PUSH1 0x64 SWAP1 REVERT JUMPDEST DUP2 SELFBALANCE LT PUSH2 0x1E0C JUMPI PUSH1 0x0 SWAP2 DUP3 SWAP2 DUP3 SWAP2 DUP3 SWAP2 PUSH1 0x1 PUSH1 0x1 PUSH1 0xA0 SHL SUB AND GAS CALL PUSH2 0x1D99 PUSH2 0x1B29 JUMP JUMPDEST POP ISZERO PUSH2 0x1DA1 JUMPI JUMP JUMPDEST PUSH1 0x40 MLOAD PUSH3 0x461BCD PUSH1 0xE5 SHL DUP2 MSTORE PUSH1 0x20 PUSH1 0x4 DUP3 ADD MSTORE PUSH1 0x3A PUSH1 0x24 DUP3 ADD MSTORE PUSH32 0x416464726573733A20756E61626C6520746F2073656E642076616C75652C2072 PUSH1 0x44 DUP3 ADD MSTORE PUSH32 0x6563697069656E74206D61792068617665207265766572746564000000000000 PUSH1 0x64 DUP3 ADD MSTORE PUSH1 0x84 SWAP1 REVERT JUMPDEST PUSH1 0x40 MLOAD PUSH3 0x461BCD PUSH1 0xE5 SHL DUP2 MSTORE PUSH1 0x20 PUSH1 0x4 DUP3 ADD MSTORE PUSH1 0x1D PUSH1 0x24 DUP3 ADD MSTORE PUSH32 0x416464726573733A20696E73756666696369656E742062616C616E6365000000 PUSH1 0x44 DUP3 ADD MSTORE PUSH1 0x64 SWAP1 REVERT JUMPDEST PUSH1 0xFF PUSH1 0x11 SLOAD AND ISZERO DUP1 PUSH2 0x1E6E JUMPI JUMPDEST PUSH2 0x1E64 JUMPI JUMP JUMPDEST PUSH2 0x1E6C PUSH2 0x1E88 JUMP JUMPDEST JUMP JUMPDEST POP PUSH1 0x10 SLOAD PUSH1 0xB SLOAD GT ISZERO DUP1 PUSH2 0x1E5E JUMPI POP PUSH1 0xD SLOAD TIMESTAMP LT ISZERO PUSH2 0x1E5E JUMP JUMPDEST PUSH1 0x11 SLOAD PUSH1 0xFF DUP2 AND PUSH2 0x201D JUMPI PUSH1 0xD SLOAD SWAP1 DUP2 TIMESTAMP GT DUP1 ISZERO PUSH2 0x200F JUMPI JUMPDEST ISZERO PUSH2 0x1FCB JUMPI PUSH1 0x1 SWAP1 PUSH32 0x4D61895C9FA0D080C0E00B846F4636055B4EA61AE134C57096B3335EDBCD17CA PUSH1 0xE0 PUSH1 0x10 SLOAD SWAP5 PUSH1 0xB SLOAD PUSH1 0x40 MLOAD SWAP2 PUSH1 0xA0 DUP4 MSTORE PUSH1 0x13 PUSH1 0xA0 DUP5 ADD MSTORE PUSH19 0x2334B730B634BD34B7339031B0B6B830B4B3B7 PUSH1 0x69 SHL PUSH1 0xC0 DUP5 ADD MSTORE TIMESTAMP PUSH1 0x20 DUP5 ADD MSTORE PUSH1 0x40 DUP4 ADD MSTORE DUP7 PUSH1 0x60 DUP4 ADD MSTORE PUSH1 0x80 DUP3 ADD MSTORE LOG1 PUSH1 0xFF NOT AND OR PUSH1 0x11 SSTORE DUP1 PUSH2 0x1F58 JUMPI JUMPDEST POP PUSH32 0x170C266B6C51C5EE0E58A9FF23F733B295FF6C6B28F3C61A2ED3DC74A0902F2D PUSH1 0x20 PUSH1 0x10 SLOAD PUSH1 0xB SLOAD GT ISZERO PUSH1 0x40 MLOAD SWAP1 DUP2 MSTORE LOG1 JUMP JUMPDEST PUSH2 0x1FC5 SWAP1 PUSH1 0x1 DUP1 PUSH1 0xA0 SHL SUB PUSH1 0xA SLOAD AND PUSH32 0x17A789819FCEDB3FD9D53E652A5050583CD555F529A4323010A3E73AE0D61D5A PUSH1 0xA0 PUSH1 0x40 MLOAD PUSH1 0x60 DUP2 MSTORE PUSH1 0x12 PUSH1 0x60 DUP3 ADD MSTORE PUSH18 0x5472616E7366657272696E672066756E6473 PUSH1 0x70 SHL PUSH1 0x80 DUP3 ADD MSTORE DUP5 PUSH1 0x20 DUP3 ADD MSTORE DUP4 PUSH1 0x40 DUP3 ADD MSTORE LOG1 PUSH2 0x1D76 JUMP JUMPDEST CODESIZE PUSH2 0x1F23 JUMP JUMPDEST PUSH1 0x64 PUSH1 0x40 MLOAD PUSH3 0x461BCD PUSH1 0xE5 SHL DUP2 MSTORE PUSH1 0x20 PUSH1 0x4 DUP3 ADD MSTORE PUSH1 0x20 PUSH1 0x24 DUP3 ADD MSTORE PUSH32 0x43616D706169676E2063616E6E6F742062652066696E616C697A656420796574 PUSH1 0x44 DUP3 ADD MSTORE REVERT JUMPDEST POP PUSH1 0x10 SLOAD PUSH1 0xB SLOAD GT ISZERO PUSH2 0x1EA1 JUMP JUMPDEST PUSH1 0x40 MLOAD PUSH3 0x461BCD PUSH1 0xE5 SHL DUP2 MSTORE PUSH1 0x20 PUSH1 0x4 DUP3 ADD MSTORE PUSH1 0x1E PUSH1 0x24 DUP3 ADD MSTORE PUSH32 0x43616D706169676E20697320616C72656164792066696E616C697A65642E0000 PUSH1 0x44 DUP3 ADD MSTORE PUSH1 0x64 SWAP1 REVERT JUMPDEST ISZERO PUSH2 0x2069 JUMPI JUMP JUMPDEST PUSH1 0x40 MLOAD PUSH3 0x461BCD PUSH1 0xE5 SHL DUP2 MSTORE PUSH1 0x20 PUSH1 0x4 DUP3 ADD MSTORE PUSH1 0x28 PUSH1 0x24 DUP3 ADD MSTORE PUSH32 0x4F6E6C79207468652063616D706169676E2063726561746F722063616E206361 PUSH1 0x44 DUP3 ADD MSTORE PUSH8 0x3636103A3434B997 PUSH1 0xC1 SHL PUSH1 0x64 DUP3 ADD MSTORE PUSH1 0x84 SWAP1 REVERT JUMPDEST PUSH1 0x64 PUSH1 0x40 MLOAD PUSH3 0x461BCD PUSH1 0xE5 SHL DUP2 MSTORE PUSH1 0x20 PUSH1 0x4 DUP3 ADD MSTORE PUSH1 0x20 PUSH1 0x24 DUP3 ADD MSTORE PUSH32 0x44697265637420455448207472616E7366657273206E6F7420616C6C6F776564 PUSH1 0x44 DUP3 ADD MSTORE REVERT INVALID LOG2 PUSH5 0x6970667358 0x22 SLT KECCAK256 0x5E DELEGATECALL 0xE4 NOT JUMPDEST 0x23 0xEC 0xCD 0x2D SWAP15 0x4F DUP14 CALLDATASIZE DUP1 0xE1 PUSH22 0x4A9D8DAEF2CED32D0C25893D42A5A5D164736F6C6343 STOP ADDMOD SGT STOP CALLER BLOCKHASH JUMPI DUP8 STATICCALL SLT 0xA8 0x23 0xE0 CALLCODE 0xB7 PUSH4 0x1CC41B3B 0xA8 DUP3 DUP12 CALLER 0x21 0xCA DUP2 GT GT STATICCALL PUSH22 0xCD3AA3BB5ACE00000000000000000000000000000000 "
        },
        "methodIdentifiers": {
          "approve(address,uint256)": "095ea7b3",
          "balanceOf(address)": "70a08231",
          "buyShares(uint256)": "d1a93d18",
          "campaignName()": "0724fda9",
          "certified()": "9def2d89",
          "commissionPercent()": "77d3550b",
          "emergencyWithdraw()": "db2e21bc",
          "endTime()": "3197cbb6",
          "finalizeCampaign()": "a1211bc0",
          "finalized()": "b3f05b97",
          "fundsRaised()": "6681b9fd",
          "getApproved(uint256)": "081812fc",
          "isApprovedForAll(address,address)": "e985e9c5",
          "lawyer()": "3bfb6e31",
          "name()": "06fdde03",
          "owner()": "8da5cb5b",
          "ownerOf(uint256)": "6352211e",
          "refundShares(uint256,uint256[])": "727abbb0",
          "renounceOwnership()": "715018a6",
          "royaltyInfo(uint256,uint256)": "2a55205a",
          "royaltyReceiver()": "9fbc8713",
          "safeTransferFrom(address,address,uint256)": "42842e0e",
          "safeTransferFrom(address,address,uint256,bytes)": "b88d4fde",
          "setApprovalForAll(address,bool)": "a22cb465",
          "setRoyaltyInfo(address,uint96)": "02fa7c47",
          "sharePrice()": "87269729",
          "sharesOwned(address)": "1810d859",
          "sharesSold()": "192fc516",
          "startup()": "b3892c64",
          "supportsInterface(bytes4)": "01ffc9a7",
          "symbol()": "95d89b41",
          "targetAmount()": "953b8fb8",
          "tokenURI(uint256)": "c87b56dd",
          "totalShares()": "3a98ef39",
          "transferFrom(address,address,uint256)": "23b872dd",
          "transferOwnership(address)": "f2fde38b",
          "treasury()": "61d027b3",
          "updateTreasury(address)": "7f51bb1f"
        }
      }
    }
  }
}